{
  "_format": "hh-sol-artifact-1",
  "contractName": "HeadOrTailGame",
  "sourceName": "contracts/HeadOrTailGame.sol",
  "abi": [
    {
      "inputs": [],
      "stateMutability": "nonpayable",
      "type": "constructor"
    },
    {
      "anonymous": false,
      "inputs": [
        {
          "indexed": true,
          "internalType": "address",
          "name": "player",
          "type": "address"
        },
        {
          "indexed": true,
          "internalType": "uint256",
          "name": "gameId",
          "type": "uint256"
        },
        {
          "indexed": true,
          "internalType": "bool",
          "name": "isWinner",
          "type": "bool"
        },
        {
          "indexed": false,
          "internalType": "uint256",
          "name": "betAmount",
          "type": "uint256"
        },
        {
          "indexed": false,
          "internalType": "uint256",
          "name": "amountWon",
          "type": "uint256"
        },
        {
          "indexed": false,
          "internalType": "bool",
          "name": "bonus",
          "type": "bool"
        },
        {
          "indexed": false,
          "internalType": "bool",
          "name": "isHead",
          "type": "bool"
        }
      ],
      "name": "GameResult",
      "type": "event"
    },
    {
      "anonymous": false,
      "inputs": [
        {
          "indexed": true,
          "internalType": "address",
          "name": "previousOwner",
          "type": "address"
        },
        {
          "indexed": true,
          "internalType": "address",
          "name": "newOwner",
          "type": "address"
        }
      ],
      "name": "OwnershipTransferred",
      "type": "event"
    },
    {
      "inputs": [
        {
          "internalType": "uint256",
          "name": "",
          "type": "uint256"
        }
      ],
      "name": "allowedBetAmounts",
      "outputs": [
        {
          "internalType": "uint256",
          "name": "",
          "type": "uint256"
        }
      ],
      "stateMutability": "view",
      "type": "function"
    },
    {
      "inputs": [],
      "name": "getBalance",
      "outputs": [
        {
          "internalType": "uint256",
          "name": "",
          "type": "uint256"
        }
      ],
      "stateMutability": "view",
      "type": "function"
    },
    {
      "inputs": [],
      "name": "getBonus",
      "outputs": [
        {
          "internalType": "uint256",
          "name": "",
          "type": "uint256"
        }
      ],
      "stateMutability": "view",
      "type": "function"
    },
    {
      "inputs": [],
      "name": "getOwner",
      "outputs": [
        {
          "internalType": "address",
          "name": "",
          "type": "address"
        }
      ],
      "stateMutability": "view",
      "type": "function"
    },
    {
      "inputs": [],
      "name": "getRtp",
      "outputs": [
        {
          "internalType": "uint256",
          "name": "",
          "type": "uint256"
        }
      ],
      "stateMutability": "view",
      "type": "function"
    },
    {
      "inputs": [],
      "name": "getTotalHead",
      "outputs": [
        {
          "internalType": "uint256",
          "name": "",
          "type": "uint256"
        }
      ],
      "stateMutability": "view",
      "type": "function"
    },
    {
      "inputs": [],
      "name": "getTotalTail",
      "outputs": [
        {
          "internalType": "uint256",
          "name": "",
          "type": "uint256"
        }
      ],
      "stateMutability": "view",
      "type": "function"
    },
    {
      "inputs": [],
      "name": "owner",
      "outputs": [
        {
          "internalType": "address",
          "name": "",
          "type": "address"
        }
      ],
      "stateMutability": "view",
      "type": "function"
    },
    {
      "inputs": [
        {
          "internalType": "bool",
          "name": "choice",
          "type": "bool"
        }
      ],
      "name": "play",
      "outputs": [],
      "stateMutability": "payable",
      "type": "function"
    },
    {
      "inputs": [],
      "name": "renounceOwnership",
      "outputs": [],
      "stateMutability": "nonpayable",
      "type": "function"
    },
    {
      "inputs": [
        {
          "internalType": "uint256",
          "name": "_bonus",
          "type": "uint256"
        }
      ],
      "name": "setBonus",
      "outputs": [],
      "stateMutability": "nonpayable",
      "type": "function"
    },
    {
      "inputs": [
        {
          "internalType": "uint256",
          "name": "_rtp",
          "type": "uint256"
        }
      ],
      "name": "setRtp",
      "outputs": [],
      "stateMutability": "nonpayable",
      "type": "function"
    },
    {
      "inputs": [],
      "name": "topUpBalance",
      "outputs": [],
      "stateMutability": "payable",
      "type": "function"
    },
    {
      "inputs": [
        {
          "internalType": "address",
          "name": "newOwner",
          "type": "address"
        }
      ],
      "name": "transferOwnership",
      "outputs": [],
      "stateMutability": "nonpayable",
      "type": "function"
    },
    {
      "inputs": [],
      "name": "withdrawFunds",
      "outputs": [],
      "stateMutability": "nonpayable",
      "type": "function"
    }
  ],
  "bytecode": "0x608060405234801561001057600080fd5b5061001a3361008b565b601160025560166003556000600155600480556040805160a081018252662386f26fc10000815266470de4df8200006020820152666a94d74f43000091810191909152668e1bc9bf040000606082015266b1a2bc2ec5000060808201526100859060079060056100db565b50610146565b600080546001600160a01b038381166001600160a01b0319831681178455604051919092169283917f8be0079c531659141344cd1fd0a4f28419497f9722a3daafe3b4186f6b6457e09190a35050565b828054828255906000526020600020908101928215610121579160200282015b82811115610121578251829066ffffffffffffff169055916020019190600101906100fb565b5061012d929150610131565b5090565b5b8082111561012d5760008155600101610132565b610923806101556000396000f3fe6080604052600436106100e85760003560e01c80638bdff1611161008a578063c5f2208311610059578063c5f2208314610205578063c9e2774c1461021a578063f2fde38b1461023a578063f303773e1461025a57600080fd5b80638bdff161146101aa5780638da5cb5b146101bf578063b62aaa21146101dd578063c23c87d5146101f257600080fd5b806324600fc3116100c657806324600fc314610146578063715018a61461015b5780637efff88714610170578063893d20e81461017857600080fd5b80630b023a23146100ed5780630b98f9751461011157806312065fe014610133575b600080fd5b3480156100f957600080fd5b506006545b6040519081526020015b60405180910390f35b34801561011d57600080fd5b5061013161012c3660046107d5565b61027a565b005b34801561013f57600080fd5b50476100fe565b34801561015257600080fd5b50610131610287565b34801561016757600080fd5b50610131610321565b610131610335565b34801561018457600080fd5b506000546001600160a01b03165b6040516001600160a01b039091168152602001610108565b3480156101b657600080fd5b506003546100fe565b3480156101cb57600080fd5b506000546001600160a01b0316610192565b3480156101e957600080fd5b506002546100fe565b6101316102003660046107ee565b610385565b34801561021157600080fd5b506005546100fe565b34801561022657600080fd5b506100fe6102353660046107d5565b61059a565b34801561024657600080fd5b50610131610255366004610817565b6105bb565b34801561026657600080fd5b506101316102753660046107d5565b610631565b61028261063e565b600355565b61028f61063e565b600047116102e45760405162461bcd60e51b815260206004820152601a60248201527f436f6e74726163742062616c616e636520697320656d7074792e00000000000060448201526064015b60405180910390fd5b600080546040516001600160a01b03909116914780156108fc02929091818181858888f1935050505015801561031e573d6000803e3d6000fd5b50565b61032961063e565b6103336000610698565b565b61033d61063e565b600034116103335760405162461bcd60e51b8152602060048201526015602482015274125b9d985b1a59081d1bdc0b5d5c08185b5bdd5b9d605a1b60448201526064016102db565b61038e346106e8565b6103ef5760405162461bcd60e51b815260206004820152602c60248201527f506c656173652073656e6420636f727265637420616d6f756e7420746f20706c60448201526b30bc903a34329033b0b6b29760a11b60648201526084016102db565b4761041b34600a600354670de0b6b3a764000061040c9190610856565b6104169190610883565b61073e565b106104615760405162461bcd60e51b81526020600482015260166024820152752bb2903430bb329033b7b732903130b735b93ab83a1760511b60448201526064016102db565b600061046b610768565b9050600061047a600283610897565b600454901591508315158214908310826104a7576006805490600061049e836108ab565b919050556104bc565b600580549060006104b7836108ab565b919050555b506000821561052a576104ee34600a846104d8576002546104dc565b6003545b61040c90670de0b6b3a7640000610856565b9050478111156104fb5750475b604051339082156108fc029083906000818181858888f19350505050158015610528573d6000803e3d6000fd5b505b6001805490600061053a836108ab565b909155505060015460408051348152602081018490528415158183015286151560608201529051851515929133917f6c26b3162d7d565bf212f05fed6caf02b019f4b186feefdee65fefe4dd07b6ce9181900360800190a4505050505050565b600781815481106105aa57600080fd5b600091825260209091200154905081565b6105c361063e565b6001600160a01b0381166106285760405162461bcd60e51b815260206004820152602660248201527f4f776e61626c653a206e6577206f776e657220697320746865207a65726f206160448201526564647265737360d01b60648201526084016102db565b61031e81610698565b61063961063e565b600255565b6000546001600160a01b031633146103335760405162461bcd60e51b815260206004820181905260248201527f4f776e61626c653a2063616c6c6572206973206e6f7420746865206f776e657260448201526064016102db565b600080546001600160a01b038381166001600160a01b0319831681178455604051919092169283917f8be0079c531659141344cd1fd0a4f28419497f9722a3daafe3b4186f6b6457e09190a35050565b6000805b6007548110156107355760078181548110610709576107096108c4565b906000526020600020015483036107235750600192915050565b8061072d816108ab565b9150506106ec565b50600092915050565b600080670de0b6b3a76400006107548486610856565b61075e9190610883565b9150505b92915050565b600080600a42336001546040516020016107a79392919092835260609190911b6bffffffffffffffffffffffff19166020830152603482015260540190565b6040516020818303038152906040528051906020012060001c6107ca9190610897565b6107629060016108da565b6000602082840312156107e757600080fd5b5035919050565b60006020828403121561080057600080fd5b8135801515811461081057600080fd5b9392505050565b60006020828403121561082957600080fd5b81356001600160a01b038116811461081057600080fd5b634e487b7160e01b600052601160045260246000fd5b808202811582820484141761076257610762610840565b634e487b7160e01b600052601260045260246000fd5b6000826108925761089261086d565b500490565b6000826108a6576108a661086d565b500690565b6000600182016108bd576108bd610840565b5060010190565b634e487b7160e01b600052603260045260246000fd5b808201808211156107625761076261084056fea26469706673582212200faf85cd68d400b9c6d108fc8d244b4dabd07667babd871b919b3e89227c0b3164736f6c63430008120033",
  "linkReferences": {},
  "deployedLinkReferences": {}
}