{"contracts/HeadOrTailGame.sol":{"HeadOrTailGame":{"abi":[{"inputs":[{"internalType":"uint64","name":"subscriptionId","type":"uint64"},{"internalType":"bytes32","name":"gasLane","type":"bytes32"},{"internalType":"uint32","name":"callbackGasLimit","type":"uint32"},{"internalType":"address","name":"vrfCoordinatorV2","type":"address"}],"stateMutability":"nonpayable","type":"constructor"},{"inputs":[{"internalType":"address","name":"have","type":"address"},{"internalType":"address","name":"want","type":"address"}],"name":"OnlyCoordinatorCanFulfill","type":"error"},{"anonymous":false,"inputs":[{"indexed":true,"internalType":"address","name":"player","type":"address"},{"indexed":true,"internalType":"uint256","name":"requestId","type":"uint256"},{"indexed":false,"internalType":"uint256","name":"gameId","type":"uint256"},{"indexed":false,"internalType":"bool","name":"isWinner","type":"bool"},{"indexed":false,"internalType":"uint256","name":"betAmount","type":"uint256"},{"indexed":false,"internalType":"uint256","name":"amountWon","type":"uint256"},{"indexed":false,"internalType":"bool","name":"bonus","type":"bool"},{"indexed":false,"internalType":"bool","name":"isHead","type":"bool"}],"name":"GameResult","type":"event"},{"anonymous":false,"inputs":[{"indexed":true,"internalType":"address","name":"previousOwner","type":"address"},{"indexed":true,"internalType":"address","name":"newOwner","type":"address"}],"name":"OwnershipTransferred","type":"event"},{"anonymous":false,"inputs":[{"indexed":true,"internalType":"uint256","name":"requestId","type":"uint256"}],"name":"RequestedRandomNumber","type":"event"},{"inputs":[{"internalType":"uint256","name":"","type":"uint256"}],"name":"allowedBetAmounts","outputs":[{"internalType":"uint256","name":"","type":"uint256"}],"stateMutability":"view","type":"function"},{"inputs":[{"internalType":"uint256","name":"","type":"uint256"}],"name":"gameStatus","outputs":[{"internalType":"uint256","name":"fees","type":"uint256"},{"internalType":"uint256","name":"randomWord","type":"uint256"},{"internalType":"address","name":"player","type":"address"},{"internalType":"bool","name":"isWinner","type":"bool"},{"internalType":"bool","name":"fulfilled","type":"bool"},{"internalType":"bool","name":"isHead","type":"bool"},{"internalType":"uint256","name":"betAmount","type":"uint256"}],"stateMutability":"view","type":"function"},{"inputs":[],"name":"getBalance","outputs":[{"internalType":"uint256","name":"","type":"uint256"}],"stateMutability":"view","type":"function"},{"inputs":[],"name":"getBonus","outputs":[{"internalType":"uint256","name":"","type":"uint256"}],"stateMutability":"view","type":"function"},{"inputs":[],"name":"getOwner","outputs":[{"internalType":"address","name":"","type":"address"}],"stateMutability":"view","type":"function"},{"inputs":[],"name":"getRtp","outputs":[{"internalType":"uint256","name":"","type":"uint256"}],"stateMutability":"view","type":"function"},{"inputs":[],"name":"getTotalHead","outputs":[{"internalType":"uint256","name":"","type":"uint256"}],"stateMutability":"view","type":"function"},{"inputs":[],"name":"getTotalTail","outputs":[{"internalType":"uint256","name":"","type":"uint256"}],"stateMutability":"view","type":"function"},{"inputs":[],"name":"owner","outputs":[{"internalType":"address","name":"","type":"address"}],"stateMutability":"view","type":"function"},{"inputs":[{"internalType":"bool","name":"choice","type":"bool"}],"name":"play","outputs":[{"internalType":"uint256","name":"","type":"uint256"}],"stateMutability":"payable","type":"function"},{"inputs":[],"name":"randomResult","outputs":[{"internalType":"uint256","name":"","type":"uint256"}],"stateMutability":"view","type":"function"},{"inputs":[{"internalType":"uint256","name":"requestId","type":"uint256"},{"internalType":"uint256[]","name":"randomWords","type":"uint256[]"}],"name":"rawFulfillRandomWords","outputs":[],"stateMutability":"nonpayable","type":"function"},{"inputs":[],"name":"renounceOwnership","outputs":[],"stateMutability":"nonpayable","type":"function"},{"inputs":[{"internalType":"uint256","name":"_bonus","type":"uint256"}],"name":"setBonus","outputs":[],"stateMutability":"nonpayable","type":"function"},{"inputs":[{"internalType":"uint256","name":"_rtp","type":"uint256"}],"name":"setRtp","outputs":[],"stateMutability":"nonpayable","type":"function"},{"inputs":[],"name":"topUpBalance","outputs":[],"stateMutability":"payable","type":"function"},{"inputs":[{"internalType":"address","name":"newOwner","type":"address"}],"name":"transferOwnership","outputs":[],"stateMutability":"nonpayable","type":"function"},{"inputs":[],"name":"withdrawFunds","outputs":[],"stateMutability":"nonpayable","type":"function"}],"evm":{"bytecode":{"linkReferences":{},"object":"6101206040523480156200001257600080fd5b506040516200110d3803806200110d8339810160408190526200003591620001ad565b6001600160a01b0381166080526200004d33620000eb565b601160025560166003556000600155600480556040805160a081018252662386f26fc10000815266470de4df8200006020820152666a94d74f43000091810191909152668e1bc9bf040000606082015266b1a2bc2ec500006080820152620000ba9060089060056200013b565b506001600160a01b031660a05260e0919091526001600160401b0390911660c05263ffffffff166101005262000227565b600080546001600160a01b038381166001600160a01b0319831681178455604051919092169283917f8be0079c531659141344cd1fd0a4f28419497f9722a3daafe3b4186f6b6457e09190a35050565b82805482825590600052602060002090810192821562000184579160200282015b8281111562000184578251829066ffffffffffffff169055916020019190600101906200015c565b506200019292915062000196565b5090565b5b8082111562000192576000815560010162000197565b60008060008060808587031215620001c457600080fd5b84516001600160401b0381168114620001dc57600080fd5b60208601516040870151919550935063ffffffff81168114620001fe57600080fd5b60608601519092506001600160a01b03811681146200021c57600080fd5b939692955090935050565b60805160a05160c05160e05161010051610e9a62000273600039600061066601526000610604015260006106330152600061069701526000818161039c01526103de0152610e9a6000f3fe6080604052600436106101095760003560e01c8063893d20e811610095578063c23c87d511610064578063c23c87d5146102fc578063c5f220831461030f578063c9e2774c14610324578063f2fde38b14610344578063f303773e1461036457600080fd5b8063893d20e8146102825780638bdff161146102b45780638da5cb5b146102c9578063b62aaa21146102e757600080fd5b806324600fc3116100dc57806324600fc31461018757806334239c9c1461019c57806342619f661461024f578063715018a6146102655780637efff8871461027a57600080fd5b80630b023a231461010e5780630b98f9751461013257806312065fe0146101545780631fe543e314610167575b600080fd5b34801561011a57600080fd5b506006545b6040519081526020015b60405180910390f35b34801561013e57600080fd5b5061015261014d366004610c66565b610384565b005b34801561016057600080fd5b504761011f565b34801561017357600080fd5b50610152610182366004610c95565b610391565b34801561019357600080fd5b5061015261041e565b3480156101a857600080fd5b5061020a6101b7366004610c66565b6009602052600090815260409020805460018201546002830154600390930154919290916001600160a01b0382169160ff600160a01b8204811692600160a81b8304821692600160b01b90049091169087565b6040805197885260208801969096526001600160a01b039094169486019490945290151560608501521515608084015290151560a083015260c082015260e001610129565b34801561025b57600080fd5b5061011f60075481565b34801561027157600080fd5b506101526104b3565b6101526104c7565b34801561028e57600080fd5b506000546001600160a01b03165b6040516001600160a01b039091168152602001610129565b3480156102c057600080fd5b5060035461011f565b3480156102d557600080fd5b506000546001600160a01b031661029c565b3480156102f357600080fd5b5060025461011f565b61011f61030a366004610d5f565b610517565b34801561031b57600080fd5b5060055461011f565b34801561033057600080fd5b5061011f61033f366004610c66565b610802565b34801561035057600080fd5b5061015261035f366004610d88565b610823565b34801561037057600080fd5b5061015261037f366004610c66565b610899565b61038c6108a6565b600355565b336001600160a01b037f000000000000000000000000000000000000000000000000000000000000000016146104105760405163073e64fd60e21b81523360048201526001600160a01b037f00000000000000000000000000000000000000000000000000000000000000001660248201526044015b60405180910390fd5b61041a8282610900565b5050565b6104266108a6565b600047116104765760405162461bcd60e51b815260206004820152601a60248201527f436f6e74726163742062616c616e636520697320656d7074792e0000000000006044820152606401610407565b600080546040516001600160a01b03909116914780156108fc02929091818181858888f193505050501580156104b0573d6000803e3d6000fd5b50565b6104bb6108a6565b6104c56000610b96565b565b6104cf6108a6565b600034116104c55760405162461bcd60e51b8152602060048201526015602482015274125b9d985b1a59081d1bdc0b5d5c08185b5bdd5b9d605a1b6044820152606401610407565b600061052234610be6565b6105835760405162461bcd60e51b815260206004820152602c60248201527f506c656173652073656e6420636f727265637420616d6f756e7420746f20706c60448201526b30bc903a34329033b0b6b29760a11b6064820152608401610407565b476105af34600a600354670de0b6b3a76400006105a09190610dc7565b6105aa9190610df4565b610c3c565b106105f55760405162461bcd60e51b81526020600482015260166024820152752bb2903430bb329033b7b732903130b735b93ab83a1760511b6044820152606401610407565b6040516305d3b1d360e41b81527f0000000000000000000000000000000000000000000000000000000000000000600482015267ffffffffffffffff7f00000000000000000000000000000000000000000000000000000000000000001660248201526003604482015263ffffffff7f0000000000000000000000000000000000000000000000000000000000000000166064820152600160848201526000907f00000000000000000000000000000000000000000000000000000000000000006001600160a01b031690635d3b1d309060a4016020604051808303816000875af11580156106e8573d6000803e3d6000fd5b505050506040513d601f19601f8201168201806040525081019061070c9190610e08565b6040805160e081018252600080825260208083018281523384860190815260608501848152608086018581528b151560a088019081523460c089019081528a88526009909652888720975188559351600188015591516002870180549251935194511515600160b01b0260ff60b01b19951515600160a81b029590951661ffff60a81b19941515600160a01b026001600160a81b03199094166001600160a01b03939093169290921792909217929092169190911791909117905551600390920191909155905191925082917f28a75f9a78cd502748cecc04795531fd051165f83e4be1270400ac7130873e2e9190a292915050565b6008818154811061081257600080fd5b600091825260209091200154905081565b61082b6108a6565b6001600160a01b0381166108905760405162461bcd60e51b815260206004820152602660248201527f4f776e61626c653a206e6577206f776e657220697320746865207a65726f206160448201526564647265737360d01b6064820152608401610407565b6104b081610b96565b6108a16108a6565b600255565b6000546001600160a01b031633146104c55760405162461bcd60e51b815260206004820181905260248201527f4f776e61626c653a2063616c6c6572206973206e6f7420746865206f776e65726044820152606401610407565b6000828152600960205260408120600201805460ff60a81b1916600160a81b179055815182919061093357610933610e21565b60200260200101516009600084815260200190815260200160002060010181905550600060648260008151811061096c5761096c610e21565b602002602001015161097e9190610e37565b9050600061098d600283610e37565b60008581526009602052604090206002015460045491159250600160b01b900460ff1615158214908310826109d557600680549060006109cc83610e4b565b919050556109ea565b600580549060006109e583610e4b565b919050555b5060008215610af257600087815260096020526040902060030154610a2e90600a84610a1857600254610a1c565b6003545b6105a090670de0b6b3a7640000610dc7565b905047811115610a3b5750475b6000878152600960205260408082206002018054600160a01b60ff60a01b1982161790915590516001600160a01b039091169083908381818185875af1925050503d8060008114610aa8576040519150601f19603f3d011682016040523d82523d6000602084013e610aad565b606091505b5050905080610af05760405162461bcd60e51b815260206004820152600f60248201526e151c985b9cd9995c8819985a5b1959608a1b6044820152606401610407565b505b60018054906000610b0283610e4b565b909155505060008781526009602090815260409182902060028101546001546003909201548451928352871515938301939093529281019190915260608101839052831515608082015285151560a082015288916001600160a01b0316907f3fceb718577531f659be1037b1dd265e5e32134c2be981e0bc1579f2250b08509060c00160405180910390a350505050505050565b600080546001600160a01b038381166001600160a01b0319831681178455604051919092169283917f8be0079c531659141344cd1fd0a4f28419497f9722a3daafe3b4186f6b6457e09190a35050565b6000805b600854811015610c335760088181548110610c0757610c07610e21565b90600052602060002001548303610c215750600192915050565b80610c2b81610e4b565b915050610bea565b50600092915050565b600080670de0b6b3a7640000610c528486610dc7565b610c5c9190610df4565b9150505b92915050565b600060208284031215610c7857600080fd5b5035919050565b634e487b7160e01b600052604160045260246000fd5b60008060408385031215610ca857600080fd5b8235915060208084013567ffffffffffffffff80821115610cc857600080fd5b818601915086601f830112610cdc57600080fd5b813581811115610cee57610cee610c7f565b8060051b604051601f19603f83011681018181108582111715610d1357610d13610c7f565b604052918252848201925083810185019189831115610d3157600080fd5b938501935b82851015610d4f57843584529385019392850192610d36565b8096505050505050509250929050565b600060208284031215610d7157600080fd5b81358015158114610d8157600080fd5b9392505050565b600060208284031215610d9a57600080fd5b81356001600160a01b0381168114610d8157600080fd5b634e487b7160e01b600052601160045260246000fd5b8082028115828204841417610c6057610c60610db1565b634e487b7160e01b600052601260045260246000fd5b600082610e0357610e03610dde565b500490565b600060208284031215610e1a57600080fd5b5051919050565b634e487b7160e01b600052603260045260246000fd5b600082610e4657610e46610dde565b500690565b600060018201610e5d57610e5d610db1565b506001019056fea2646970667358221220308ba441da31a887ca0c29fb2c4042418d6429fc62b8a63e0794f5723091c9ce64736f6c63430008120033","opcodes":"PUSH2 0x120 PUSH1 0x40 MSTORE CALLVALUE DUP1 ISZERO PUSH3 0x12 JUMPI PUSH1 0x0 DUP1 REVERT JUMPDEST POP PUSH1 0x40 MLOAD PUSH3 0x110D CODESIZE SUB DUP1 PUSH3 0x110D DUP4 CODECOPY DUP2 ADD PUSH1 0x40 DUP2 SWAP1 MSTORE PUSH3 0x35 SWAP2 PUSH3 0x1AD JUMP JUMPDEST PUSH1 0x1 PUSH1 0x1 PUSH1 0xA0 SHL SUB DUP2 AND PUSH1 0x80 MSTORE PUSH3 0x4D CALLER PUSH3 0xEB JUMP JUMPDEST PUSH1 0x11 PUSH1 0x2 SSTORE PUSH1 0x16 PUSH1 0x3 SSTORE PUSH1 0x0 PUSH1 0x1 SSTORE PUSH1 0x4 DUP1 SSTORE PUSH1 0x40 DUP1 MLOAD PUSH1 0xA0 DUP2 ADD DUP3 MSTORE PUSH7 0x2386F26FC10000 DUP2 MSTORE PUSH7 0x470DE4DF820000 PUSH1 0x20 DUP3 ADD MSTORE PUSH7 0x6A94D74F430000 SWAP2 DUP2 ADD SWAP2 SWAP1 SWAP2 MSTORE PUSH7 0x8E1BC9BF040000 PUSH1 0x60 DUP3 ADD MSTORE PUSH7 0xB1A2BC2EC50000 PUSH1 0x80 DUP3 ADD MSTORE PUSH3 0xBA SWAP1 PUSH1 0x8 SWAP1 PUSH1 0x5 PUSH3 0x13B JUMP JUMPDEST POP PUSH1 0x1 PUSH1 0x1 PUSH1 0xA0 SHL SUB AND PUSH1 0xA0 MSTORE PUSH1 0xE0 SWAP2 SWAP1 SWAP2 MSTORE PUSH1 0x1 PUSH1 0x1 PUSH1 0x40 SHL SUB SWAP1 SWAP2 AND PUSH1 0xC0 MSTORE PUSH4 0xFFFFFFFF AND PUSH2 0x100 MSTORE PUSH3 0x227 JUMP JUMPDEST PUSH1 0x0 DUP1 SLOAD PUSH1 0x1 PUSH1 0x1 PUSH1 0xA0 SHL SUB DUP4 DUP2 AND PUSH1 0x1 PUSH1 0x1 PUSH1 0xA0 SHL SUB NOT DUP4 AND DUP2 OR DUP5 SSTORE PUSH1 0x40 MLOAD SWAP2 SWAP1 SWAP3 AND SWAP3 DUP4 SWAP2 PUSH32 0x8BE0079C531659141344CD1FD0A4F28419497F9722A3DAAFE3B4186F6B6457E0 SWAP2 SWAP1 LOG3 POP POP JUMP JUMPDEST DUP3 DUP1 SLOAD DUP3 DUP3 SSTORE SWAP1 PUSH1 0x0 MSTORE PUSH1 0x20 PUSH1 0x0 KECCAK256 SWAP1 DUP2 ADD SWAP3 DUP3 ISZERO PUSH3 0x184 JUMPI SWAP2 PUSH1 0x20 MUL DUP3 ADD JUMPDEST DUP3 DUP2 GT ISZERO PUSH3 0x184 JUMPI DUP3 MLOAD DUP3 SWAP1 PUSH7 0xFFFFFFFFFFFFFF AND SWAP1 SSTORE SWAP2 PUSH1 0x20 ADD SWAP2 SWAP1 PUSH1 0x1 ADD SWAP1 PUSH3 0x15C JUMP JUMPDEST POP PUSH3 0x192 SWAP3 SWAP2 POP PUSH3 0x196 JUMP JUMPDEST POP SWAP1 JUMP JUMPDEST JUMPDEST DUP1 DUP3 GT ISZERO PUSH3 0x192 JUMPI PUSH1 0x0 DUP2 SSTORE PUSH1 0x1 ADD PUSH3 0x197 JUMP JUMPDEST PUSH1 0x0 DUP1 PUSH1 0x0 DUP1 PUSH1 0x80 DUP6 DUP8 SUB SLT ISZERO PUSH3 0x1C4 JUMPI PUSH1 0x0 DUP1 REVERT JUMPDEST DUP5 MLOAD PUSH1 0x1 PUSH1 0x1 PUSH1 0x40 SHL SUB DUP2 AND DUP2 EQ PUSH3 0x1DC JUMPI PUSH1 0x0 DUP1 REVERT JUMPDEST PUSH1 0x20 DUP7 ADD MLOAD PUSH1 0x40 DUP8 ADD MLOAD SWAP2 SWAP6 POP SWAP4 POP PUSH4 0xFFFFFFFF DUP2 AND DUP2 EQ PUSH3 0x1FE JUMPI PUSH1 0x0 DUP1 REVERT JUMPDEST PUSH1 0x60 DUP7 ADD MLOAD SWAP1 SWAP3 POP PUSH1 0x1 PUSH1 0x1 PUSH1 0xA0 SHL SUB DUP2 AND DUP2 EQ PUSH3 0x21C JUMPI PUSH1 0x0 DUP1 REVERT JUMPDEST SWAP4 SWAP7 SWAP3 SWAP6 POP SWAP1 SWAP4 POP POP JUMP JUMPDEST PUSH1 0x80 MLOAD PUSH1 0xA0 MLOAD PUSH1 0xC0 MLOAD PUSH1 0xE0 MLOAD PUSH2 0x100 MLOAD PUSH2 0xE9A PUSH3 0x273 PUSH1 0x0 CODECOPY PUSH1 0x0 PUSH2 0x666 ADD MSTORE PUSH1 0x0 PUSH2 0x604 ADD MSTORE PUSH1 0x0 PUSH2 0x633 ADD MSTORE PUSH1 0x0 PUSH2 0x697 ADD MSTORE PUSH1 0x0 DUP2 DUP2 PUSH2 0x39C ADD MSTORE PUSH2 0x3DE ADD MSTORE PUSH2 0xE9A PUSH1 0x0 RETURN INVALID PUSH1 0x80 PUSH1 0x40 MSTORE PUSH1 0x4 CALLDATASIZE LT PUSH2 0x109 JUMPI PUSH1 0x0 CALLDATALOAD PUSH1 0xE0 SHR DUP1 PUSH4 0x893D20E8 GT PUSH2 0x95 JUMPI DUP1 PUSH4 0xC23C87D5 GT PUSH2 0x64 JUMPI DUP1 PUSH4 0xC23C87D5 EQ PUSH2 0x2FC JUMPI DUP1 PUSH4 0xC5F22083 EQ PUSH2 0x30F JUMPI DUP1 PUSH4 0xC9E2774C EQ PUSH2 0x324 JUMPI DUP1 PUSH4 0xF2FDE38B EQ PUSH2 0x344 JUMPI DUP1 PUSH4 0xF303773E EQ PUSH2 0x364 JUMPI PUSH1 0x0 DUP1 REVERT JUMPDEST DUP1 PUSH4 0x893D20E8 EQ PUSH2 0x282 JUMPI DUP1 PUSH4 0x8BDFF161 EQ PUSH2 0x2B4 JUMPI DUP1 PUSH4 0x8DA5CB5B EQ PUSH2 0x2C9 JUMPI DUP1 PUSH4 0xB62AAA21 EQ PUSH2 0x2E7 JUMPI PUSH1 0x0 DUP1 REVERT JUMPDEST DUP1 PUSH4 0x24600FC3 GT PUSH2 0xDC JUMPI DUP1 PUSH4 0x24600FC3 EQ PUSH2 0x187 JUMPI DUP1 PUSH4 0x34239C9C EQ PUSH2 0x19C JUMPI DUP1 PUSH4 0x42619F66 EQ PUSH2 0x24F JUMPI DUP1 PUSH4 0x715018A6 EQ PUSH2 0x265 JUMPI DUP1 PUSH4 0x7EFFF887 EQ PUSH2 0x27A JUMPI PUSH1 0x0 DUP1 REVERT JUMPDEST DUP1 PUSH4 0xB023A23 EQ PUSH2 0x10E JUMPI DUP1 PUSH4 0xB98F975 EQ PUSH2 0x132 JUMPI DUP1 PUSH4 0x12065FE0 EQ PUSH2 0x154 JUMPI DUP1 PUSH4 0x1FE543E3 EQ PUSH2 0x167 JUMPI JUMPDEST PUSH1 0x0 DUP1 REVERT JUMPDEST CALLVALUE DUP1 ISZERO PUSH2 0x11A JUMPI PUSH1 0x0 DUP1 REVERT JUMPDEST POP PUSH1 0x6 SLOAD JUMPDEST PUSH1 0x40 MLOAD SWAP1 DUP2 MSTORE PUSH1 0x20 ADD JUMPDEST PUSH1 0x40 MLOAD DUP1 SWAP2 SUB SWAP1 RETURN JUMPDEST CALLVALUE DUP1 ISZERO PUSH2 0x13E JUMPI PUSH1 0x0 DUP1 REVERT JUMPDEST POP PUSH2 0x152 PUSH2 0x14D CALLDATASIZE PUSH1 0x4 PUSH2 0xC66 JUMP JUMPDEST PUSH2 0x384 JUMP JUMPDEST STOP JUMPDEST CALLVALUE DUP1 ISZERO PUSH2 0x160 JUMPI PUSH1 0x0 DUP1 REVERT JUMPDEST POP SELFBALANCE PUSH2 0x11F JUMP JUMPDEST CALLVALUE DUP1 ISZERO PUSH2 0x173 JUMPI PUSH1 0x0 DUP1 REVERT JUMPDEST POP PUSH2 0x152 PUSH2 0x182 CALLDATASIZE PUSH1 0x4 PUSH2 0xC95 JUMP JUMPDEST PUSH2 0x391 JUMP JUMPDEST CALLVALUE DUP1 ISZERO PUSH2 0x193 JUMPI PUSH1 0x0 DUP1 REVERT JUMPDEST POP PUSH2 0x152 PUSH2 0x41E JUMP JUMPDEST CALLVALUE DUP1 ISZERO PUSH2 0x1A8 JUMPI PUSH1 0x0 DUP1 REVERT JUMPDEST POP PUSH2 0x20A PUSH2 0x1B7 CALLDATASIZE PUSH1 0x4 PUSH2 0xC66 JUMP JUMPDEST PUSH1 0x9 PUSH1 0x20 MSTORE PUSH1 0x0 SWAP1 DUP2 MSTORE PUSH1 0x40 SWAP1 KECCAK256 DUP1 SLOAD PUSH1 0x1 DUP3 ADD SLOAD PUSH1 0x2 DUP4 ADD SLOAD PUSH1 0x3 SWAP1 SWAP4 ADD SLOAD SWAP2 SWAP3 SWAP1 SWAP2 PUSH1 0x1 PUSH1 0x1 PUSH1 0xA0 SHL SUB DUP3 AND SWAP2 PUSH1 0xFF PUSH1 0x1 PUSH1 0xA0 SHL DUP3 DIV DUP2 AND SWAP3 PUSH1 0x1 PUSH1 0xA8 SHL DUP4 DIV DUP3 AND SWAP3 PUSH1 0x1 PUSH1 0xB0 SHL SWAP1 DIV SWAP1 SWAP2 AND SWAP1 DUP8 JUMP JUMPDEST PUSH1 0x40 DUP1 MLOAD SWAP8 DUP9 MSTORE PUSH1 0x20 DUP9 ADD SWAP7 SWAP1 SWAP7 MSTORE PUSH1 0x1 PUSH1 0x1 PUSH1 0xA0 SHL SUB SWAP1 SWAP5 AND SWAP5 DUP7 ADD SWAP5 SWAP1 SWAP5 MSTORE SWAP1 ISZERO ISZERO PUSH1 0x60 DUP6 ADD MSTORE ISZERO ISZERO PUSH1 0x80 DUP5 ADD MSTORE SWAP1 ISZERO ISZERO PUSH1 0xA0 DUP4 ADD MSTORE PUSH1 0xC0 DUP3 ADD MSTORE PUSH1 0xE0 ADD PUSH2 0x129 JUMP JUMPDEST CALLVALUE DUP1 ISZERO PUSH2 0x25B JUMPI PUSH1 0x0 DUP1 REVERT JUMPDEST POP PUSH2 0x11F PUSH1 0x7 SLOAD DUP2 JUMP JUMPDEST CALLVALUE DUP1 ISZERO PUSH2 0x271 JUMPI PUSH1 0x0 DUP1 REVERT JUMPDEST POP PUSH2 0x152 PUSH2 0x4B3 JUMP JUMPDEST PUSH2 0x152 PUSH2 0x4C7 JUMP JUMPDEST CALLVALUE DUP1 ISZERO PUSH2 0x28E JUMPI PUSH1 0x0 DUP1 REVERT JUMPDEST POP PUSH1 0x0 SLOAD PUSH1 0x1 PUSH1 0x1 PUSH1 0xA0 SHL SUB AND JUMPDEST PUSH1 0x40 MLOAD PUSH1 0x1 PUSH1 0x1 PUSH1 0xA0 SHL SUB SWAP1 SWAP2 AND DUP2 MSTORE PUSH1 0x20 ADD PUSH2 0x129 JUMP JUMPDEST CALLVALUE DUP1 ISZERO PUSH2 0x2C0 JUMPI PUSH1 0x0 DUP1 REVERT JUMPDEST POP PUSH1 0x3 SLOAD PUSH2 0x11F JUMP JUMPDEST CALLVALUE DUP1 ISZERO PUSH2 0x2D5 JUMPI PUSH1 0x0 DUP1 REVERT JUMPDEST POP PUSH1 0x0 SLOAD PUSH1 0x1 PUSH1 0x1 PUSH1 0xA0 SHL SUB AND PUSH2 0x29C JUMP JUMPDEST CALLVALUE DUP1 ISZERO PUSH2 0x2F3 JUMPI PUSH1 0x0 DUP1 REVERT JUMPDEST POP PUSH1 0x2 SLOAD PUSH2 0x11F JUMP JUMPDEST PUSH2 0x11F PUSH2 0x30A CALLDATASIZE PUSH1 0x4 PUSH2 0xD5F JUMP JUMPDEST PUSH2 0x517 JUMP JUMPDEST CALLVALUE DUP1 ISZERO PUSH2 0x31B JUMPI PUSH1 0x0 DUP1 REVERT JUMPDEST POP PUSH1 0x5 SLOAD PUSH2 0x11F JUMP JUMPDEST CALLVALUE DUP1 ISZERO PUSH2 0x330 JUMPI PUSH1 0x0 DUP1 REVERT JUMPDEST POP PUSH2 0x11F PUSH2 0x33F CALLDATASIZE PUSH1 0x4 PUSH2 0xC66 JUMP JUMPDEST PUSH2 0x802 JUMP JUMPDEST CALLVALUE DUP1 ISZERO PUSH2 0x350 JUMPI PUSH1 0x0 DUP1 REVERT JUMPDEST POP PUSH2 0x152 PUSH2 0x35F CALLDATASIZE PUSH1 0x4 PUSH2 0xD88 JUMP JUMPDEST PUSH2 0x823 JUMP JUMPDEST CALLVALUE DUP1 ISZERO PUSH2 0x370 JUMPI PUSH1 0x0 DUP1 REVERT JUMPDEST POP PUSH2 0x152 PUSH2 0x37F CALLDATASIZE PUSH1 0x4 PUSH2 0xC66 JUMP JUMPDEST PUSH2 0x899 JUMP JUMPDEST PUSH2 0x38C PUSH2 0x8A6 JUMP JUMPDEST PUSH1 0x3 SSTORE JUMP JUMPDEST CALLER PUSH1 0x1 PUSH1 0x1 PUSH1 0xA0 SHL SUB PUSH32 0x0 AND EQ PUSH2 0x410 JUMPI PUSH1 0x40 MLOAD PUSH4 0x73E64FD PUSH1 0xE2 SHL DUP2 MSTORE CALLER PUSH1 0x4 DUP3 ADD MSTORE PUSH1 0x1 PUSH1 0x1 PUSH1 0xA0 SHL SUB PUSH32 0x0 AND PUSH1 0x24 DUP3 ADD MSTORE PUSH1 0x44 ADD JUMPDEST PUSH1 0x40 MLOAD DUP1 SWAP2 SUB SWAP1 REVERT JUMPDEST PUSH2 0x41A DUP3 DUP3 PUSH2 0x900 JUMP JUMPDEST POP POP JUMP JUMPDEST PUSH2 0x426 PUSH2 0x8A6 JUMP JUMPDEST PUSH1 0x0 SELFBALANCE GT PUSH2 0x476 JUMPI PUSH1 0x40 MLOAD PUSH3 0x461BCD PUSH1 0xE5 SHL DUP2 MSTORE PUSH1 0x20 PUSH1 0x4 DUP3 ADD MSTORE PUSH1 0x1A PUSH1 0x24 DUP3 ADD MSTORE PUSH32 0x436F6E74726163742062616C616E636520697320656D7074792E000000000000 PUSH1 0x44 DUP3 ADD MSTORE PUSH1 0x64 ADD PUSH2 0x407 JUMP JUMPDEST PUSH1 0x0 DUP1 SLOAD PUSH1 0x40 MLOAD PUSH1 0x1 PUSH1 0x1 PUSH1 0xA0 SHL SUB SWAP1 SWAP2 AND SWAP2 SELFBALANCE DUP1 ISZERO PUSH2 0x8FC MUL SWAP3 SWAP1 SWAP2 DUP2 DUP2 DUP2 DUP6 DUP9 DUP9 CALL SWAP4 POP POP POP POP ISZERO DUP1 ISZERO PUSH2 0x4B0 JUMPI RETURNDATASIZE PUSH1 0x0 DUP1 RETURNDATACOPY RETURNDATASIZE PUSH1 0x0 REVERT JUMPDEST POP JUMP JUMPDEST PUSH2 0x4BB PUSH2 0x8A6 JUMP JUMPDEST PUSH2 0x4C5 PUSH1 0x0 PUSH2 0xB96 JUMP JUMPDEST JUMP JUMPDEST PUSH2 0x4CF PUSH2 0x8A6 JUMP JUMPDEST PUSH1 0x0 CALLVALUE GT PUSH2 0x4C5 JUMPI PUSH1 0x40 MLOAD PUSH3 0x461BCD PUSH1 0xE5 SHL DUP2 MSTORE PUSH1 0x20 PUSH1 0x4 DUP3 ADD MSTORE PUSH1 0x15 PUSH1 0x24 DUP3 ADD MSTORE PUSH21 0x125B9D985B1A59081D1BDC0B5D5C08185B5BDD5B9D PUSH1 0x5A SHL PUSH1 0x44 DUP3 ADD MSTORE PUSH1 0x64 ADD PUSH2 0x407 JUMP JUMPDEST PUSH1 0x0 PUSH2 0x522 CALLVALUE PUSH2 0xBE6 JUMP JUMPDEST PUSH2 0x583 JUMPI PUSH1 0x40 MLOAD PUSH3 0x461BCD PUSH1 0xE5 SHL DUP2 MSTORE PUSH1 0x20 PUSH1 0x4 DUP3 ADD MSTORE PUSH1 0x2C PUSH1 0x24 DUP3 ADD MSTORE PUSH32 0x506C656173652073656E6420636F727265637420616D6F756E7420746F20706C PUSH1 0x44 DUP3 ADD MSTORE PUSH12 0x30BC903A34329033B0B6B297 PUSH1 0xA1 SHL PUSH1 0x64 DUP3 ADD MSTORE PUSH1 0x84 ADD PUSH2 0x407 JUMP JUMPDEST SELFBALANCE PUSH2 0x5AF CALLVALUE PUSH1 0xA PUSH1 0x3 SLOAD PUSH8 0xDE0B6B3A7640000 PUSH2 0x5A0 SWAP2 SWAP1 PUSH2 0xDC7 JUMP JUMPDEST PUSH2 0x5AA SWAP2 SWAP1 PUSH2 0xDF4 JUMP JUMPDEST PUSH2 0xC3C JUMP JUMPDEST LT PUSH2 0x5F5 JUMPI PUSH1 0x40 MLOAD PUSH3 0x461BCD PUSH1 0xE5 SHL DUP2 MSTORE PUSH1 0x20 PUSH1 0x4 DUP3 ADD MSTORE PUSH1 0x16 PUSH1 0x24 DUP3 ADD MSTORE PUSH22 0x2BB2903430BB329033B7B732903130B735B93AB83A17 PUSH1 0x51 SHL PUSH1 0x44 DUP3 ADD MSTORE PUSH1 0x64 ADD PUSH2 0x407 JUMP JUMPDEST PUSH1 0x40 MLOAD PUSH4 0x5D3B1D3 PUSH1 0xE4 SHL DUP2 MSTORE PUSH32 0x0 PUSH1 0x4 DUP3 ADD MSTORE PUSH8 0xFFFFFFFFFFFFFFFF PUSH32 0x0 AND PUSH1 0x24 DUP3 ADD MSTORE PUSH1 0x3 PUSH1 0x44 DUP3 ADD MSTORE PUSH4 0xFFFFFFFF PUSH32 0x0 AND PUSH1 0x64 DUP3 ADD MSTORE PUSH1 0x1 PUSH1 0x84 DUP3 ADD MSTORE PUSH1 0x0 SWAP1 PUSH32 0x0 PUSH1 0x1 PUSH1 0x1 PUSH1 0xA0 SHL SUB AND SWAP1 PUSH4 0x5D3B1D30 SWAP1 PUSH1 0xA4 ADD PUSH1 0x20 PUSH1 0x40 MLOAD DUP1 DUP4 SUB DUP2 PUSH1 0x0 DUP8 GAS CALL ISZERO DUP1 ISZERO PUSH2 0x6E8 JUMPI RETURNDATASIZE PUSH1 0x0 DUP1 RETURNDATACOPY RETURNDATASIZE PUSH1 0x0 REVERT JUMPDEST POP POP POP POP PUSH1 0x40 MLOAD RETURNDATASIZE PUSH1 0x1F NOT PUSH1 0x1F DUP3 ADD AND DUP3 ADD DUP1 PUSH1 0x40 MSTORE POP DUP2 ADD SWAP1 PUSH2 0x70C SWAP2 SWAP1 PUSH2 0xE08 JUMP JUMPDEST PUSH1 0x40 DUP1 MLOAD PUSH1 0xE0 DUP2 ADD DUP3 MSTORE PUSH1 0x0 DUP1 DUP3 MSTORE PUSH1 0x20 DUP1 DUP4 ADD DUP3 DUP2 MSTORE CALLER DUP5 DUP7 ADD SWAP1 DUP2 MSTORE PUSH1 0x60 DUP6 ADD DUP5 DUP2 MSTORE PUSH1 0x80 DUP7 ADD DUP6 DUP2 MSTORE DUP12 ISZERO ISZERO PUSH1 0xA0 DUP9 ADD SWAP1 DUP2 MSTORE CALLVALUE PUSH1 0xC0 DUP10 ADD SWAP1 DUP2 MSTORE DUP11 DUP9 MSTORE PUSH1 0x9 SWAP1 SWAP7 MSTORE DUP9 DUP8 KECCAK256 SWAP8 MLOAD DUP9 SSTORE SWAP4 MLOAD PUSH1 0x1 DUP9 ADD SSTORE SWAP2 MLOAD PUSH1 0x2 DUP8 ADD DUP1 SLOAD SWAP3 MLOAD SWAP4 MLOAD SWAP5 MLOAD ISZERO ISZERO PUSH1 0x1 PUSH1 0xB0 SHL MUL PUSH1 0xFF PUSH1 0xB0 SHL NOT SWAP6 ISZERO ISZERO PUSH1 0x1 PUSH1 0xA8 SHL MUL SWAP6 SWAP1 SWAP6 AND PUSH2 0xFFFF PUSH1 0xA8 SHL NOT SWAP5 ISZERO ISZERO PUSH1 0x1 PUSH1 0xA0 SHL MUL PUSH1 0x1 PUSH1 0x1 PUSH1 0xA8 SHL SUB NOT SWAP1 SWAP5 AND PUSH1 0x1 PUSH1 0x1 PUSH1 0xA0 SHL SUB SWAP4 SWAP1 SWAP4 AND SWAP3 SWAP1 SWAP3 OR SWAP3 SWAP1 SWAP3 OR SWAP3 SWAP1 SWAP3 AND SWAP2 SWAP1 SWAP2 OR SWAP2 SWAP1 SWAP2 OR SWAP1 SSTORE MLOAD PUSH1 0x3 SWAP1 SWAP3 ADD SWAP2 SWAP1 SWAP2 SSTORE SWAP1 MLOAD SWAP2 SWAP3 POP DUP3 SWAP2 PUSH32 0x28A75F9A78CD502748CECC04795531FD051165F83E4BE1270400AC7130873E2E SWAP2 SWAP1 LOG2 SWAP3 SWAP2 POP POP JUMP JUMPDEST PUSH1 0x8 DUP2 DUP2 SLOAD DUP2 LT PUSH2 0x812 JUMPI PUSH1 0x0 DUP1 REVERT JUMPDEST PUSH1 0x0 SWAP2 DUP3 MSTORE PUSH1 0x20 SWAP1 SWAP2 KECCAK256 ADD SLOAD SWAP1 POP DUP2 JUMP JUMPDEST PUSH2 0x82B PUSH2 0x8A6 JUMP JUMPDEST PUSH1 0x1 PUSH1 0x1 PUSH1 0xA0 SHL SUB DUP2 AND PUSH2 0x890 JUMPI PUSH1 0x40 MLOAD PUSH3 0x461BCD PUSH1 0xE5 SHL DUP2 MSTORE PUSH1 0x20 PUSH1 0x4 DUP3 ADD MSTORE PUSH1 0x26 PUSH1 0x24 DUP3 ADD MSTORE PUSH32 0x4F776E61626C653A206E6577206F776E657220697320746865207A65726F2061 PUSH1 0x44 DUP3 ADD MSTORE PUSH6 0x646472657373 PUSH1 0xD0 SHL PUSH1 0x64 DUP3 ADD MSTORE PUSH1 0x84 ADD PUSH2 0x407 JUMP JUMPDEST PUSH2 0x4B0 DUP2 PUSH2 0xB96 JUMP JUMPDEST PUSH2 0x8A1 PUSH2 0x8A6 JUMP JUMPDEST PUSH1 0x2 SSTORE JUMP JUMPDEST PUSH1 0x0 SLOAD PUSH1 0x1 PUSH1 0x1 PUSH1 0xA0 SHL SUB AND CALLER EQ PUSH2 0x4C5 JUMPI PUSH1 0x40 MLOAD PUSH3 0x461BCD PUSH1 0xE5 SHL DUP2 MSTORE PUSH1 0x20 PUSH1 0x4 DUP3 ADD DUP2 SWAP1 MSTORE PUSH1 0x24 DUP3 ADD MSTORE PUSH32 0x4F776E61626C653A2063616C6C6572206973206E6F7420746865206F776E6572 PUSH1 0x44 DUP3 ADD MSTORE PUSH1 0x64 ADD PUSH2 0x407 JUMP JUMPDEST PUSH1 0x0 DUP3 DUP2 MSTORE PUSH1 0x9 PUSH1 0x20 MSTORE PUSH1 0x40 DUP2 KECCAK256 PUSH1 0x2 ADD DUP1 SLOAD PUSH1 0xFF PUSH1 0xA8 SHL NOT AND PUSH1 0x1 PUSH1 0xA8 SHL OR SWAP1 SSTORE DUP2 MLOAD DUP3 SWAP2 SWAP1 PUSH2 0x933 JUMPI PUSH2 0x933 PUSH2 0xE21 JUMP JUMPDEST PUSH1 0x20 MUL PUSH1 0x20 ADD ADD MLOAD PUSH1 0x9 PUSH1 0x0 DUP5 DUP2 MSTORE PUSH1 0x20 ADD SWAP1 DUP2 MSTORE PUSH1 0x20 ADD PUSH1 0x0 KECCAK256 PUSH1 0x1 ADD DUP2 SWAP1 SSTORE POP PUSH1 0x0 PUSH1 0x64 DUP3 PUSH1 0x0 DUP2 MLOAD DUP2 LT PUSH2 0x96C JUMPI PUSH2 0x96C PUSH2 0xE21 JUMP JUMPDEST PUSH1 0x20 MUL PUSH1 0x20 ADD ADD MLOAD PUSH2 0x97E SWAP2 SWAP1 PUSH2 0xE37 JUMP JUMPDEST SWAP1 POP PUSH1 0x0 PUSH2 0x98D PUSH1 0x2 DUP4 PUSH2 0xE37 JUMP JUMPDEST PUSH1 0x0 DUP6 DUP2 MSTORE PUSH1 0x9 PUSH1 0x20 MSTORE PUSH1 0x40 SWAP1 KECCAK256 PUSH1 0x2 ADD SLOAD PUSH1 0x4 SLOAD SWAP2 ISZERO SWAP3 POP PUSH1 0x1 PUSH1 0xB0 SHL SWAP1 DIV PUSH1 0xFF AND ISZERO ISZERO DUP3 EQ SWAP1 DUP4 LT DUP3 PUSH2 0x9D5 JUMPI PUSH1 0x6 DUP1 SLOAD SWAP1 PUSH1 0x0 PUSH2 0x9CC DUP4 PUSH2 0xE4B JUMP JUMPDEST SWAP2 SWAP1 POP SSTORE PUSH2 0x9EA JUMP JUMPDEST PUSH1 0x5 DUP1 SLOAD SWAP1 PUSH1 0x0 PUSH2 0x9E5 DUP4 PUSH2 0xE4B JUMP JUMPDEST SWAP2 SWAP1 POP SSTORE JUMPDEST POP PUSH1 0x0 DUP3 ISZERO PUSH2 0xAF2 JUMPI PUSH1 0x0 DUP8 DUP2 MSTORE PUSH1 0x9 PUSH1 0x20 MSTORE PUSH1 0x40 SWAP1 KECCAK256 PUSH1 0x3 ADD SLOAD PUSH2 0xA2E SWAP1 PUSH1 0xA DUP5 PUSH2 0xA18 JUMPI PUSH1 0x2 SLOAD PUSH2 0xA1C JUMP JUMPDEST PUSH1 0x3 SLOAD JUMPDEST PUSH2 0x5A0 SWAP1 PUSH8 0xDE0B6B3A7640000 PUSH2 0xDC7 JUMP JUMPDEST SWAP1 POP SELFBALANCE DUP2 GT ISZERO PUSH2 0xA3B JUMPI POP SELFBALANCE JUMPDEST PUSH1 0x0 DUP8 DUP2 MSTORE PUSH1 0x9 PUSH1 0x20 MSTORE PUSH1 0x40 DUP1 DUP3 KECCAK256 PUSH1 0x2 ADD DUP1 SLOAD PUSH1 0x1 PUSH1 0xA0 SHL PUSH1 0xFF PUSH1 0xA0 SHL NOT DUP3 AND OR SWAP1 SWAP2 SSTORE SWAP1 MLOAD PUSH1 0x1 PUSH1 0x1 PUSH1 0xA0 SHL SUB SWAP1 SWAP2 AND SWAP1 DUP4 SWAP1 DUP4 DUP2 DUP2 DUP2 DUP6 DUP8 GAS CALL SWAP3 POP POP POP RETURNDATASIZE DUP1 PUSH1 0x0 DUP2 EQ PUSH2 0xAA8 JUMPI PUSH1 0x40 MLOAD SWAP2 POP PUSH1 0x1F NOT PUSH1 0x3F RETURNDATASIZE ADD AND DUP3 ADD PUSH1 0x40 MSTORE RETURNDATASIZE DUP3 MSTORE RETURNDATASIZE PUSH1 0x0 PUSH1 0x20 DUP5 ADD RETURNDATACOPY PUSH2 0xAAD JUMP JUMPDEST PUSH1 0x60 SWAP2 POP JUMPDEST POP POP SWAP1 POP DUP1 PUSH2 0xAF0 JUMPI PUSH1 0x40 MLOAD PUSH3 0x461BCD PUSH1 0xE5 SHL DUP2 MSTORE PUSH1 0x20 PUSH1 0x4 DUP3 ADD MSTORE PUSH1 0xF PUSH1 0x24 DUP3 ADD MSTORE PUSH15 0x151C985B9CD9995C8819985A5B1959 PUSH1 0x8A SHL PUSH1 0x44 DUP3 ADD MSTORE PUSH1 0x64 ADD PUSH2 0x407 JUMP JUMPDEST POP JUMPDEST PUSH1 0x1 DUP1 SLOAD SWAP1 PUSH1 0x0 PUSH2 0xB02 DUP4 PUSH2 0xE4B JUMP JUMPDEST SWAP1 SWAP2 SSTORE POP POP PUSH1 0x0 DUP8 DUP2 MSTORE PUSH1 0x9 PUSH1 0x20 SWAP1 DUP2 MSTORE PUSH1 0x40 SWAP2 DUP3 SWAP1 KECCAK256 PUSH1 0x2 DUP2 ADD SLOAD PUSH1 0x1 SLOAD PUSH1 0x3 SWAP1 SWAP3 ADD SLOAD DUP5 MLOAD SWAP3 DUP4 MSTORE DUP8 ISZERO ISZERO SWAP4 DUP4 ADD SWAP4 SWAP1 SWAP4 MSTORE SWAP3 DUP2 ADD SWAP2 SWAP1 SWAP2 MSTORE PUSH1 0x60 DUP2 ADD DUP4 SWAP1 MSTORE DUP4 ISZERO ISZERO PUSH1 0x80 DUP3 ADD MSTORE DUP6 ISZERO ISZERO PUSH1 0xA0 DUP3 ADD MSTORE DUP9 SWAP2 PUSH1 0x1 PUSH1 0x1 PUSH1 0xA0 SHL SUB AND SWAP1 PUSH32 0x3FCEB718577531F659BE1037B1DD265E5E32134C2BE981E0BC1579F2250B0850 SWAP1 PUSH1 0xC0 ADD PUSH1 0x40 MLOAD DUP1 SWAP2 SUB SWAP1 LOG3 POP POP POP POP POP POP POP JUMP JUMPDEST PUSH1 0x0 DUP1 SLOAD PUSH1 0x1 PUSH1 0x1 PUSH1 0xA0 SHL SUB DUP4 DUP2 AND PUSH1 0x1 PUSH1 0x1 PUSH1 0xA0 SHL SUB NOT DUP4 AND DUP2 OR DUP5 SSTORE PUSH1 0x40 MLOAD SWAP2 SWAP1 SWAP3 AND SWAP3 DUP4 SWAP2 PUSH32 0x8BE0079C531659141344CD1FD0A4F28419497F9722A3DAAFE3B4186F6B6457E0 SWAP2 SWAP1 LOG3 POP POP JUMP JUMPDEST PUSH1 0x0 DUP1 JUMPDEST PUSH1 0x8 SLOAD DUP2 LT ISZERO PUSH2 0xC33 JUMPI PUSH1 0x8 DUP2 DUP2 SLOAD DUP2 LT PUSH2 0xC07 JUMPI PUSH2 0xC07 PUSH2 0xE21 JUMP JUMPDEST SWAP1 PUSH1 0x0 MSTORE PUSH1 0x20 PUSH1 0x0 KECCAK256 ADD SLOAD DUP4 SUB PUSH2 0xC21 JUMPI POP PUSH1 0x1 SWAP3 SWAP2 POP POP JUMP JUMPDEST DUP1 PUSH2 0xC2B DUP2 PUSH2 0xE4B JUMP JUMPDEST SWAP2 POP POP PUSH2 0xBEA JUMP JUMPDEST POP PUSH1 0x0 SWAP3 SWAP2 POP POP JUMP JUMPDEST PUSH1 0x0 DUP1 PUSH8 0xDE0B6B3A7640000 PUSH2 0xC52 DUP5 DUP7 PUSH2 0xDC7 JUMP JUMPDEST PUSH2 0xC5C SWAP2 SWAP1 PUSH2 0xDF4 JUMP JUMPDEST SWAP2 POP POP JUMPDEST SWAP3 SWAP2 POP POP JUMP JUMPDEST PUSH1 0x0 PUSH1 0x20 DUP3 DUP5 SUB SLT ISZERO PUSH2 0xC78 JUMPI PUSH1 0x0 DUP1 REVERT JUMPDEST POP CALLDATALOAD SWAP2 SWAP1 POP JUMP JUMPDEST PUSH4 0x4E487B71 PUSH1 0xE0 SHL PUSH1 0x0 MSTORE PUSH1 0x41 PUSH1 0x4 MSTORE PUSH1 0x24 PUSH1 0x0 REVERT JUMPDEST PUSH1 0x0 DUP1 PUSH1 0x40 DUP4 DUP6 SUB SLT ISZERO PUSH2 0xCA8 JUMPI PUSH1 0x0 DUP1 REVERT JUMPDEST DUP3 CALLDATALOAD SWAP2 POP PUSH1 0x20 DUP1 DUP5 ADD CALLDATALOAD PUSH8 0xFFFFFFFFFFFFFFFF DUP1 DUP3 GT ISZERO PUSH2 0xCC8 JUMPI PUSH1 0x0 DUP1 REVERT JUMPDEST DUP2 DUP7 ADD SWAP2 POP DUP7 PUSH1 0x1F DUP4 ADD SLT PUSH2 0xCDC JUMPI PUSH1 0x0 DUP1 REVERT JUMPDEST DUP2 CALLDATALOAD DUP2 DUP2 GT ISZERO PUSH2 0xCEE JUMPI PUSH2 0xCEE PUSH2 0xC7F JUMP JUMPDEST DUP1 PUSH1 0x5 SHL PUSH1 0x40 MLOAD PUSH1 0x1F NOT PUSH1 0x3F DUP4 ADD AND DUP2 ADD DUP2 DUP2 LT DUP6 DUP3 GT OR ISZERO PUSH2 0xD13 JUMPI PUSH2 0xD13 PUSH2 0xC7F JUMP JUMPDEST PUSH1 0x40 MSTORE SWAP2 DUP3 MSTORE DUP5 DUP3 ADD SWAP3 POP DUP4 DUP2 ADD DUP6 ADD SWAP2 DUP10 DUP4 GT ISZERO PUSH2 0xD31 JUMPI PUSH1 0x0 DUP1 REVERT JUMPDEST SWAP4 DUP6 ADD SWAP4 JUMPDEST DUP3 DUP6 LT ISZERO PUSH2 0xD4F JUMPI DUP5 CALLDATALOAD DUP5 MSTORE SWAP4 DUP6 ADD SWAP4 SWAP3 DUP6 ADD SWAP3 PUSH2 0xD36 JUMP JUMPDEST DUP1 SWAP7 POP POP POP POP POP POP POP SWAP3 POP SWAP3 SWAP1 POP JUMP JUMPDEST PUSH1 0x0 PUSH1 0x20 DUP3 DUP5 SUB SLT ISZERO PUSH2 0xD71 JUMPI PUSH1 0x0 DUP1 REVERT JUMPDEST DUP2 CALLDATALOAD DUP1 ISZERO ISZERO DUP2 EQ PUSH2 0xD81 JUMPI PUSH1 0x0 DUP1 REVERT JUMPDEST SWAP4 SWAP3 POP POP POP JUMP JUMPDEST PUSH1 0x0 PUSH1 0x20 DUP3 DUP5 SUB SLT ISZERO PUSH2 0xD9A JUMPI PUSH1 0x0 DUP1 REVERT JUMPDEST DUP2 CALLDATALOAD PUSH1 0x1 PUSH1 0x1 PUSH1 0xA0 SHL SUB DUP2 AND DUP2 EQ PUSH2 0xD81 JUMPI PUSH1 0x0 DUP1 REVERT JUMPDEST PUSH4 0x4E487B71 PUSH1 0xE0 SHL PUSH1 0x0 MSTORE PUSH1 0x11 PUSH1 0x4 MSTORE PUSH1 0x24 PUSH1 0x0 REVERT JUMPDEST DUP1 DUP3 MUL DUP2 ISZERO DUP3 DUP3 DIV DUP5 EQ OR PUSH2 0xC60 JUMPI PUSH2 0xC60 PUSH2 0xDB1 JUMP JUMPDEST PUSH4 0x4E487B71 PUSH1 0xE0 SHL PUSH1 0x0 MSTORE PUSH1 0x12 PUSH1 0x4 MSTORE PUSH1 0x24 PUSH1 0x0 REVERT JUMPDEST PUSH1 0x0 DUP3 PUSH2 0xE03 JUMPI PUSH2 0xE03 PUSH2 0xDDE JUMP JUMPDEST POP DIV SWAP1 JUMP JUMPDEST PUSH1 0x0 PUSH1 0x20 DUP3 DUP5 SUB SLT ISZERO PUSH2 0xE1A JUMPI PUSH1 0x0 DUP1 REVERT JUMPDEST POP MLOAD SWAP2 SWAP1 POP JUMP JUMPDEST PUSH4 0x4E487B71 PUSH1 0xE0 SHL PUSH1 0x0 MSTORE PUSH1 0x32 PUSH1 0x4 MSTORE PUSH1 0x24 PUSH1 0x0 REVERT JUMPDEST PUSH1 0x0 DUP3 PUSH2 0xE46 JUMPI PUSH2 0xE46 PUSH2 0xDDE JUMP JUMPDEST POP MOD SWAP1 JUMP JUMPDEST PUSH1 0x0 PUSH1 0x1 DUP3 ADD PUSH2 0xE5D JUMPI PUSH2 0xE5D PUSH2 0xDB1 JUMP JUMPDEST POP PUSH1 0x1 ADD SWAP1 JUMP INVALID LOG2 PUSH5 0x6970667358 0x22 SLT KECCAK256 ADDRESS DUP12 LOG4 COINBASE 0xDA BALANCE 0xA8 DUP8 0xCA 0xC 0x29 0xFB 0x2C BLOCKHASH TIMESTAMP COINBASE DUP14 PUSH5 0x29FC62B8A6 RETURNDATACOPY SMOD SWAP5 CREATE2 PUSH19 0x3091C9CE64736F6C6343000812003300000000 "},"methodIdentifiers":{"allowedBetAmounts(uint256)":"c9e2774c","gameStatus(uint256)":"34239c9c","getBalance()":"12065fe0","getBonus()":"8bdff161","getOwner()":"893d20e8","getRtp()":"b62aaa21","getTotalHead()":"c5f22083","getTotalTail()":"0b023a23","owner()":"8da5cb5b","play(bool)":"c23c87d5","randomResult()":"42619f66","rawFulfillRandomWords(uint256,uint256[])":"1fe543e3","renounceOwnership()":"715018a6","setBonus(uint256)":"0b98f975","setRtp(uint256)":"f303773e","topUpBalance()":"7efff887","transferOwnership(address)":"f2fde38b","withdrawFunds()":"24600fc3"}}}}}