{"contracts/HeadOrTailGame.sol":{"HeadOrTailGame":{"abi":[{"inputs":[],"stateMutability":"nonpayable","type":"constructor"},{"anonymous":false,"inputs":[{"indexed":true,"internalType":"address","name":"player","type":"address"},{"indexed":true,"internalType":"uint256","name":"gameId","type":"uint256"},{"indexed":true,"internalType":"bool","name":"isWinner","type":"bool"},{"indexed":false,"internalType":"uint256","name":"betAmount","type":"uint256"},{"indexed":false,"internalType":"uint256","name":"amountWon","type":"uint256"},{"indexed":false,"internalType":"bool","name":"bonus","type":"bool"},{"indexed":false,"internalType":"bool","name":"isHead","type":"bool"}],"name":"GameResult","type":"event"},{"anonymous":false,"inputs":[{"indexed":true,"internalType":"address","name":"previousOwner","type":"address"},{"indexed":true,"internalType":"address","name":"newOwner","type":"address"}],"name":"OwnershipTransferred","type":"event"},{"inputs":[{"internalType":"uint256","name":"","type":"uint256"}],"name":"allowedBetAmounts","outputs":[{"internalType":"uint256","name":"","type":"uint256"}],"stateMutability":"view","type":"function"},{"inputs":[],"name":"getBalance","outputs":[{"internalType":"uint256","name":"","type":"uint256"}],"stateMutability":"view","type":"function"},{"inputs":[],"name":"getBonus","outputs":[{"internalType":"uint256","name":"","type":"uint256"}],"stateMutability":"view","type":"function"},{"inputs":[],"name":"getOwner","outputs":[{"internalType":"address","name":"","type":"address"}],"stateMutability":"view","type":"function"},{"inputs":[],"name":"getRtp","outputs":[{"internalType":"uint256","name":"","type":"uint256"}],"stateMutability":"view","type":"function"},{"inputs":[],"name":"getTotalHead","outputs":[{"internalType":"uint256","name":"","type":"uint256"}],"stateMutability":"view","type":"function"},{"inputs":[],"name":"getTotalTail","outputs":[{"internalType":"uint256","name":"","type":"uint256"}],"stateMutability":"view","type":"function"},{"inputs":[],"name":"owner","outputs":[{"internalType":"address","name":"","type":"address"}],"stateMutability":"view","type":"function"},{"inputs":[{"internalType":"bool","name":"choice","type":"bool"}],"name":"play","outputs":[],"stateMutability":"payable","type":"function"},{"inputs":[],"name":"renounceOwnership","outputs":[],"stateMutability":"nonpayable","type":"function"},{"inputs":[{"internalType":"uint256","name":"_bonus","type":"uint256"}],"name":"setBonus","outputs":[],"stateMutability":"nonpayable","type":"function"},{"inputs":[{"internalType":"uint256","name":"_rtp","type":"uint256"}],"name":"setRtp","outputs":[],"stateMutability":"nonpayable","type":"function"},{"inputs":[],"name":"topUpBalance","outputs":[],"stateMutability":"payable","type":"function"},{"inputs":[{"internalType":"address","name":"newOwner","type":"address"}],"name":"transferOwnership","outputs":[],"stateMutability":"nonpayable","type":"function"},{"inputs":[],"name":"withdrawFunds","outputs":[],"stateMutability":"nonpayable","type":"function"}],"evm":{"bytecode":{"linkReferences":{},"object":"608060405234801561001057600080fd5b5061001a3361008b565b601160025560166003556000600155600480556040805160a081018252662386f26fc10000815266470de4df8200006020820152666a94d74f43000091810191909152668e1bc9bf040000606082015266b1a2bc2ec5000060808201526100859060079060056100db565b50610146565b600080546001600160a01b038381166001600160a01b0319831681178455604051919092169283917f8be0079c531659141344cd1fd0a4f28419497f9722a3daafe3b4186f6b6457e09190a35050565b828054828255906000526020600020908101928215610121579160200282015b82811115610121578251829066ffffffffffffff169055916020019190600101906100fb565b5061012d929150610131565b5090565b5b8082111561012d5760008155600101610132565b610923806101556000396000f3fe6080604052600436106100e85760003560e01c80638bdff1611161008a578063c5f2208311610059578063c5f2208314610205578063c9e2774c1461021a578063f2fde38b1461023a578063f303773e1461025a57600080fd5b80638bdff161146101aa5780638da5cb5b146101bf578063b62aaa21146101dd578063c23c87d5146101f257600080fd5b806324600fc3116100c657806324600fc314610146578063715018a61461015b5780637efff88714610170578063893d20e81461017857600080fd5b80630b023a23146100ed5780630b98f9751461011157806312065fe014610133575b600080fd5b3480156100f957600080fd5b506006545b6040519081526020015b60405180910390f35b34801561011d57600080fd5b5061013161012c3660046107d5565b61027a565b005b34801561013f57600080fd5b50476100fe565b34801561015257600080fd5b50610131610287565b34801561016757600080fd5b50610131610321565b610131610335565b34801561018457600080fd5b506000546001600160a01b03165b6040516001600160a01b039091168152602001610108565b3480156101b657600080fd5b506003546100fe565b3480156101cb57600080fd5b506000546001600160a01b0316610192565b3480156101e957600080fd5b506002546100fe565b6101316102003660046107ee565b610385565b34801561021157600080fd5b506005546100fe565b34801561022657600080fd5b506100fe6102353660046107d5565b61059a565b34801561024657600080fd5b50610131610255366004610817565b6105bb565b34801561026657600080fd5b506101316102753660046107d5565b610631565b61028261063e565b600355565b61028f61063e565b600047116102e45760405162461bcd60e51b815260206004820152601a60248201527f436f6e74726163742062616c616e636520697320656d7074792e00000000000060448201526064015b60405180910390fd5b600080546040516001600160a01b03909116914780156108fc02929091818181858888f1935050505015801561031e573d6000803e3d6000fd5b50565b61032961063e565b6103336000610698565b565b61033d61063e565b600034116103335760405162461bcd60e51b8152602060048201526015602482015274125b9d985b1a59081d1bdc0b5d5c08185b5bdd5b9d605a1b60448201526064016102db565b61038e346106e8565b6103ef5760405162461bcd60e51b815260206004820152602c60248201527f506c656173652073656e6420636f727265637420616d6f756e7420746f20706c60448201526b30bc903a34329033b0b6b29760a11b60648201526084016102db565b4761041b34600a600354670de0b6b3a764000061040c9190610856565b6104169190610883565b61073e565b106104615760405162461bcd60e51b81526020600482015260166024820152752bb2903430bb329033b7b732903130b735b93ab83a1760511b60448201526064016102db565b600061046b610768565b9050600061047a600283610897565b600454901591508315158214908310826104a7576006805490600061049e836108ab565b919050556104bc565b600580549060006104b7836108ab565b919050555b506000821561052a576104ee34600a846104d8576002546104dc565b6003545b61040c90670de0b6b3a7640000610856565b9050478111156104fb5750475b604051339082156108fc029083906000818181858888f19350505050158015610528573d6000803e3d6000fd5b505b6001805490600061053a836108ab565b909155505060015460408051348152602081018490528415158183015286151560608201529051851515929133917f6c26b3162d7d565bf212f05fed6caf02b019f4b186feefdee65fefe4dd07b6ce9181900360800190a4505050505050565b600781815481106105aa57600080fd5b600091825260209091200154905081565b6105c361063e565b6001600160a01b0381166106285760405162461bcd60e51b815260206004820152602660248201527f4f776e61626c653a206e6577206f776e657220697320746865207a65726f206160448201526564647265737360d01b60648201526084016102db565b61031e81610698565b61063961063e565b600255565b6000546001600160a01b031633146103335760405162461bcd60e51b815260206004820181905260248201527f4f776e61626c653a2063616c6c6572206973206e6f7420746865206f776e657260448201526064016102db565b600080546001600160a01b038381166001600160a01b0319831681178455604051919092169283917f8be0079c531659141344cd1fd0a4f28419497f9722a3daafe3b4186f6b6457e09190a35050565b6000805b6007548110156107355760078181548110610709576107096108c4565b906000526020600020015483036107235750600192915050565b8061072d816108ab565b9150506106ec565b50600092915050565b600080670de0b6b3a76400006107548486610856565b61075e9190610883565b9150505b92915050565b600080600a42336001546040516020016107a79392919092835260609190911b6bffffffffffffffffffffffff19166020830152603482015260540190565b6040516020818303038152906040528051906020012060001c6107ca9190610897565b6107629060016108da565b6000602082840312156107e757600080fd5b5035919050565b60006020828403121561080057600080fd5b8135801515811461081057600080fd5b9392505050565b60006020828403121561082957600080fd5b81356001600160a01b038116811461081057600080fd5b634e487b7160e01b600052601160045260246000fd5b808202811582820484141761076257610762610840565b634e487b7160e01b600052601260045260246000fd5b6000826108925761089261086d565b500490565b6000826108a6576108a661086d565b500690565b6000600182016108bd576108bd610840565b5060010190565b634e487b7160e01b600052603260045260246000fd5b808201808211156107625761076261084056fea26469706673582212200faf85cd68d400b9c6d108fc8d244b4dabd07667babd871b919b3e89227c0b3164736f6c63430008120033","opcodes":"PUSH1 0x80 PUSH1 0x40 MSTORE CALLVALUE DUP1 ISZERO PUSH2 0x10 JUMPI PUSH1 0x0 DUP1 REVERT JUMPDEST POP PUSH2 0x1A CALLER PUSH2 0x8B JUMP JUMPDEST PUSH1 0x11 PUSH1 0x2 SSTORE PUSH1 0x16 PUSH1 0x3 SSTORE PUSH1 0x0 PUSH1 0x1 SSTORE PUSH1 0x4 DUP1 SSTORE PUSH1 0x40 DUP1 MLOAD PUSH1 0xA0 DUP2 ADD DUP3 MSTORE PUSH7 0x2386F26FC10000 DUP2 MSTORE PUSH7 0x470DE4DF820000 PUSH1 0x20 DUP3 ADD MSTORE PUSH7 0x6A94D74F430000 SWAP2 DUP2 ADD SWAP2 SWAP1 SWAP2 MSTORE PUSH7 0x8E1BC9BF040000 PUSH1 0x60 DUP3 ADD MSTORE PUSH7 0xB1A2BC2EC50000 PUSH1 0x80 DUP3 ADD MSTORE PUSH2 0x85 SWAP1 PUSH1 0x7 SWAP1 PUSH1 0x5 PUSH2 0xDB JUMP JUMPDEST POP PUSH2 0x146 JUMP JUMPDEST PUSH1 0x0 DUP1 SLOAD PUSH1 0x1 PUSH1 0x1 PUSH1 0xA0 SHL SUB DUP4 DUP2 AND PUSH1 0x1 PUSH1 0x1 PUSH1 0xA0 SHL SUB NOT DUP4 AND DUP2 OR DUP5 SSTORE PUSH1 0x40 MLOAD SWAP2 SWAP1 SWAP3 AND SWAP3 DUP4 SWAP2 PUSH32 0x8BE0079C531659141344CD1FD0A4F28419497F9722A3DAAFE3B4186F6B6457E0 SWAP2 SWAP1 LOG3 POP POP JUMP JUMPDEST DUP3 DUP1 SLOAD DUP3 DUP3 SSTORE SWAP1 PUSH1 0x0 MSTORE PUSH1 0x20 PUSH1 0x0 KECCAK256 SWAP1 DUP2 ADD SWAP3 DUP3 ISZERO PUSH2 0x121 JUMPI SWAP2 PUSH1 0x20 MUL DUP3 ADD JUMPDEST DUP3 DUP2 GT ISZERO PUSH2 0x121 JUMPI DUP3 MLOAD DUP3 SWAP1 PUSH7 0xFFFFFFFFFFFFFF AND SWAP1 SSTORE SWAP2 PUSH1 0x20 ADD SWAP2 SWAP1 PUSH1 0x1 ADD SWAP1 PUSH2 0xFB JUMP JUMPDEST POP PUSH2 0x12D SWAP3 SWAP2 POP PUSH2 0x131 JUMP JUMPDEST POP SWAP1 JUMP JUMPDEST JUMPDEST DUP1 DUP3 GT ISZERO PUSH2 0x12D JUMPI PUSH1 0x0 DUP2 SSTORE PUSH1 0x1 ADD PUSH2 0x132 JUMP JUMPDEST PUSH2 0x923 DUP1 PUSH2 0x155 PUSH1 0x0 CODECOPY PUSH1 0x0 RETURN INVALID PUSH1 0x80 PUSH1 0x40 MSTORE PUSH1 0x4 CALLDATASIZE LT PUSH2 0xE8 JUMPI PUSH1 0x0 CALLDATALOAD PUSH1 0xE0 SHR DUP1 PUSH4 0x8BDFF161 GT PUSH2 0x8A JUMPI DUP1 PUSH4 0xC5F22083 GT PUSH2 0x59 JUMPI DUP1 PUSH4 0xC5F22083 EQ PUSH2 0x205 JUMPI DUP1 PUSH4 0xC9E2774C EQ PUSH2 0x21A JUMPI DUP1 PUSH4 0xF2FDE38B EQ PUSH2 0x23A JUMPI DUP1 PUSH4 0xF303773E EQ PUSH2 0x25A JUMPI PUSH1 0x0 DUP1 REVERT JUMPDEST DUP1 PUSH4 0x8BDFF161 EQ PUSH2 0x1AA JUMPI DUP1 PUSH4 0x8DA5CB5B EQ PUSH2 0x1BF JUMPI DUP1 PUSH4 0xB62AAA21 EQ PUSH2 0x1DD JUMPI DUP1 PUSH4 0xC23C87D5 EQ PUSH2 0x1F2 JUMPI PUSH1 0x0 DUP1 REVERT JUMPDEST DUP1 PUSH4 0x24600FC3 GT PUSH2 0xC6 JUMPI DUP1 PUSH4 0x24600FC3 EQ PUSH2 0x146 JUMPI DUP1 PUSH4 0x715018A6 EQ PUSH2 0x15B JUMPI DUP1 PUSH4 0x7EFFF887 EQ PUSH2 0x170 JUMPI DUP1 PUSH4 0x893D20E8 EQ PUSH2 0x178 JUMPI PUSH1 0x0 DUP1 REVERT JUMPDEST DUP1 PUSH4 0xB023A23 EQ PUSH2 0xED JUMPI DUP1 PUSH4 0xB98F975 EQ PUSH2 0x111 JUMPI DUP1 PUSH4 0x12065FE0 EQ PUSH2 0x133 JUMPI JUMPDEST PUSH1 0x0 DUP1 REVERT JUMPDEST CALLVALUE DUP1 ISZERO PUSH2 0xF9 JUMPI PUSH1 0x0 DUP1 REVERT JUMPDEST POP PUSH1 0x6 SLOAD JUMPDEST PUSH1 0x40 MLOAD SWAP1 DUP2 MSTORE PUSH1 0x20 ADD JUMPDEST PUSH1 0x40 MLOAD DUP1 SWAP2 SUB SWAP1 RETURN JUMPDEST CALLVALUE DUP1 ISZERO PUSH2 0x11D JUMPI PUSH1 0x0 DUP1 REVERT JUMPDEST POP PUSH2 0x131 PUSH2 0x12C CALLDATASIZE PUSH1 0x4 PUSH2 0x7D5 JUMP JUMPDEST PUSH2 0x27A JUMP JUMPDEST STOP JUMPDEST CALLVALUE DUP1 ISZERO PUSH2 0x13F JUMPI PUSH1 0x0 DUP1 REVERT JUMPDEST POP SELFBALANCE PUSH2 0xFE JUMP JUMPDEST CALLVALUE DUP1 ISZERO PUSH2 0x152 JUMPI PUSH1 0x0 DUP1 REVERT JUMPDEST POP PUSH2 0x131 PUSH2 0x287 JUMP JUMPDEST CALLVALUE DUP1 ISZERO PUSH2 0x167 JUMPI PUSH1 0x0 DUP1 REVERT JUMPDEST POP PUSH2 0x131 PUSH2 0x321 JUMP JUMPDEST PUSH2 0x131 PUSH2 0x335 JUMP JUMPDEST CALLVALUE DUP1 ISZERO PUSH2 0x184 JUMPI PUSH1 0x0 DUP1 REVERT JUMPDEST POP PUSH1 0x0 SLOAD PUSH1 0x1 PUSH1 0x1 PUSH1 0xA0 SHL SUB AND JUMPDEST PUSH1 0x40 MLOAD PUSH1 0x1 PUSH1 0x1 PUSH1 0xA0 SHL SUB SWAP1 SWAP2 AND DUP2 MSTORE PUSH1 0x20 ADD PUSH2 0x108 JUMP JUMPDEST CALLVALUE DUP1 ISZERO PUSH2 0x1B6 JUMPI PUSH1 0x0 DUP1 REVERT JUMPDEST POP PUSH1 0x3 SLOAD PUSH2 0xFE JUMP JUMPDEST CALLVALUE DUP1 ISZERO PUSH2 0x1CB JUMPI PUSH1 0x0 DUP1 REVERT JUMPDEST POP PUSH1 0x0 SLOAD PUSH1 0x1 PUSH1 0x1 PUSH1 0xA0 SHL SUB AND PUSH2 0x192 JUMP JUMPDEST CALLVALUE DUP1 ISZERO PUSH2 0x1E9 JUMPI PUSH1 0x0 DUP1 REVERT JUMPDEST POP PUSH1 0x2 SLOAD PUSH2 0xFE JUMP JUMPDEST PUSH2 0x131 PUSH2 0x200 CALLDATASIZE PUSH1 0x4 PUSH2 0x7EE JUMP JUMPDEST PUSH2 0x385 JUMP JUMPDEST CALLVALUE DUP1 ISZERO PUSH2 0x211 JUMPI PUSH1 0x0 DUP1 REVERT JUMPDEST POP PUSH1 0x5 SLOAD PUSH2 0xFE JUMP JUMPDEST CALLVALUE DUP1 ISZERO PUSH2 0x226 JUMPI PUSH1 0x0 DUP1 REVERT JUMPDEST POP PUSH2 0xFE PUSH2 0x235 CALLDATASIZE PUSH1 0x4 PUSH2 0x7D5 JUMP JUMPDEST PUSH2 0x59A JUMP JUMPDEST CALLVALUE DUP1 ISZERO PUSH2 0x246 JUMPI PUSH1 0x0 DUP1 REVERT JUMPDEST POP PUSH2 0x131 PUSH2 0x255 CALLDATASIZE PUSH1 0x4 PUSH2 0x817 JUMP JUMPDEST PUSH2 0x5BB JUMP JUMPDEST CALLVALUE DUP1 ISZERO PUSH2 0x266 JUMPI PUSH1 0x0 DUP1 REVERT JUMPDEST POP PUSH2 0x131 PUSH2 0x275 CALLDATASIZE PUSH1 0x4 PUSH2 0x7D5 JUMP JUMPDEST PUSH2 0x631 JUMP JUMPDEST PUSH2 0x282 PUSH2 0x63E JUMP JUMPDEST PUSH1 0x3 SSTORE JUMP JUMPDEST PUSH2 0x28F PUSH2 0x63E JUMP JUMPDEST PUSH1 0x0 SELFBALANCE GT PUSH2 0x2E4 JUMPI PUSH1 0x40 MLOAD PUSH3 0x461BCD PUSH1 0xE5 SHL DUP2 MSTORE PUSH1 0x20 PUSH1 0x4 DUP3 ADD MSTORE PUSH1 0x1A PUSH1 0x24 DUP3 ADD MSTORE PUSH32 0x436F6E74726163742062616C616E636520697320656D7074792E000000000000 PUSH1 0x44 DUP3 ADD MSTORE PUSH1 0x64 ADD JUMPDEST PUSH1 0x40 MLOAD DUP1 SWAP2 SUB SWAP1 REVERT JUMPDEST PUSH1 0x0 DUP1 SLOAD PUSH1 0x40 MLOAD PUSH1 0x1 PUSH1 0x1 PUSH1 0xA0 SHL SUB SWAP1 SWAP2 AND SWAP2 SELFBALANCE DUP1 ISZERO PUSH2 0x8FC MUL SWAP3 SWAP1 SWAP2 DUP2 DUP2 DUP2 DUP6 DUP9 DUP9 CALL SWAP4 POP POP POP POP ISZERO DUP1 ISZERO PUSH2 0x31E JUMPI RETURNDATASIZE PUSH1 0x0 DUP1 RETURNDATACOPY RETURNDATASIZE PUSH1 0x0 REVERT JUMPDEST POP JUMP JUMPDEST PUSH2 0x329 PUSH2 0x63E JUMP JUMPDEST PUSH2 0x333 PUSH1 0x0 PUSH2 0x698 JUMP JUMPDEST JUMP JUMPDEST PUSH2 0x33D PUSH2 0x63E JUMP JUMPDEST PUSH1 0x0 CALLVALUE GT PUSH2 0x333 JUMPI PUSH1 0x40 MLOAD PUSH3 0x461BCD PUSH1 0xE5 SHL DUP2 MSTORE PUSH1 0x20 PUSH1 0x4 DUP3 ADD MSTORE PUSH1 0x15 PUSH1 0x24 DUP3 ADD MSTORE PUSH21 0x125B9D985B1A59081D1BDC0B5D5C08185B5BDD5B9D PUSH1 0x5A SHL PUSH1 0x44 DUP3 ADD MSTORE PUSH1 0x64 ADD PUSH2 0x2DB JUMP JUMPDEST PUSH2 0x38E CALLVALUE PUSH2 0x6E8 JUMP JUMPDEST PUSH2 0x3EF JUMPI PUSH1 0x40 MLOAD PUSH3 0x461BCD PUSH1 0xE5 SHL DUP2 MSTORE PUSH1 0x20 PUSH1 0x4 DUP3 ADD MSTORE PUSH1 0x2C PUSH1 0x24 DUP3 ADD MSTORE PUSH32 0x506C656173652073656E6420636F727265637420616D6F756E7420746F20706C PUSH1 0x44 DUP3 ADD MSTORE PUSH12 0x30BC903A34329033B0B6B297 PUSH1 0xA1 SHL PUSH1 0x64 DUP3 ADD MSTORE PUSH1 0x84 ADD PUSH2 0x2DB JUMP JUMPDEST SELFBALANCE PUSH2 0x41B CALLVALUE PUSH1 0xA PUSH1 0x3 SLOAD PUSH8 0xDE0B6B3A7640000 PUSH2 0x40C SWAP2 SWAP1 PUSH2 0x856 JUMP JUMPDEST PUSH2 0x416 SWAP2 SWAP1 PUSH2 0x883 JUMP JUMPDEST PUSH2 0x73E JUMP JUMPDEST LT PUSH2 0x461 JUMPI PUSH1 0x40 MLOAD PUSH3 0x461BCD PUSH1 0xE5 SHL DUP2 MSTORE PUSH1 0x20 PUSH1 0x4 DUP3 ADD MSTORE PUSH1 0x16 PUSH1 0x24 DUP3 ADD MSTORE PUSH22 0x2BB2903430BB329033B7B732903130B735B93AB83A17 PUSH1 0x51 SHL PUSH1 0x44 DUP3 ADD MSTORE PUSH1 0x64 ADD PUSH2 0x2DB JUMP JUMPDEST PUSH1 0x0 PUSH2 0x46B PUSH2 0x768 JUMP JUMPDEST SWAP1 POP PUSH1 0x0 PUSH2 0x47A PUSH1 0x2 DUP4 PUSH2 0x897 JUMP JUMPDEST PUSH1 0x4 SLOAD SWAP1 ISZERO SWAP2 POP DUP4 ISZERO ISZERO DUP3 EQ SWAP1 DUP4 LT DUP3 PUSH2 0x4A7 JUMPI PUSH1 0x6 DUP1 SLOAD SWAP1 PUSH1 0x0 PUSH2 0x49E DUP4 PUSH2 0x8AB JUMP JUMPDEST SWAP2 SWAP1 POP SSTORE PUSH2 0x4BC JUMP JUMPDEST PUSH1 0x5 DUP1 SLOAD SWAP1 PUSH1 0x0 PUSH2 0x4B7 DUP4 PUSH2 0x8AB JUMP JUMPDEST SWAP2 SWAP1 POP SSTORE JUMPDEST POP PUSH1 0x0 DUP3 ISZERO PUSH2 0x52A JUMPI PUSH2 0x4EE CALLVALUE PUSH1 0xA DUP5 PUSH2 0x4D8 JUMPI PUSH1 0x2 SLOAD PUSH2 0x4DC JUMP JUMPDEST PUSH1 0x3 SLOAD JUMPDEST PUSH2 0x40C SWAP1 PUSH8 0xDE0B6B3A7640000 PUSH2 0x856 JUMP JUMPDEST SWAP1 POP SELFBALANCE DUP2 GT ISZERO PUSH2 0x4FB JUMPI POP SELFBALANCE JUMPDEST PUSH1 0x40 MLOAD CALLER SWAP1 DUP3 ISZERO PUSH2 0x8FC MUL SWAP1 DUP4 SWAP1 PUSH1 0x0 DUP2 DUP2 DUP2 DUP6 DUP9 DUP9 CALL SWAP4 POP POP POP POP ISZERO DUP1 ISZERO PUSH2 0x528 JUMPI RETURNDATASIZE PUSH1 0x0 DUP1 RETURNDATACOPY RETURNDATASIZE PUSH1 0x0 REVERT JUMPDEST POP JUMPDEST PUSH1 0x1 DUP1 SLOAD SWAP1 PUSH1 0x0 PUSH2 0x53A DUP4 PUSH2 0x8AB JUMP JUMPDEST SWAP1 SWAP2 SSTORE POP POP PUSH1 0x1 SLOAD PUSH1 0x40 DUP1 MLOAD CALLVALUE DUP2 MSTORE PUSH1 0x20 DUP2 ADD DUP5 SWAP1 MSTORE DUP5 ISZERO ISZERO DUP2 DUP4 ADD MSTORE DUP7 ISZERO ISZERO PUSH1 0x60 DUP3 ADD MSTORE SWAP1 MLOAD DUP6 ISZERO ISZERO SWAP3 SWAP2 CALLER SWAP2 PUSH32 0x6C26B3162D7D565BF212F05FED6CAF02B019F4B186FEEFDEE65FEFE4DD07B6CE SWAP2 DUP2 SWAP1 SUB PUSH1 0x80 ADD SWAP1 LOG4 POP POP POP POP POP POP JUMP JUMPDEST PUSH1 0x7 DUP2 DUP2 SLOAD DUP2 LT PUSH2 0x5AA JUMPI PUSH1 0x0 DUP1 REVERT JUMPDEST PUSH1 0x0 SWAP2 DUP3 MSTORE PUSH1 0x20 SWAP1 SWAP2 KECCAK256 ADD SLOAD SWAP1 POP DUP2 JUMP JUMPDEST PUSH2 0x5C3 PUSH2 0x63E JUMP JUMPDEST PUSH1 0x1 PUSH1 0x1 PUSH1 0xA0 SHL SUB DUP2 AND PUSH2 0x628 JUMPI PUSH1 0x40 MLOAD PUSH3 0x461BCD PUSH1 0xE5 SHL DUP2 MSTORE PUSH1 0x20 PUSH1 0x4 DUP3 ADD MSTORE PUSH1 0x26 PUSH1 0x24 DUP3 ADD MSTORE PUSH32 0x4F776E61626C653A206E6577206F776E657220697320746865207A65726F2061 PUSH1 0x44 DUP3 ADD MSTORE PUSH6 0x646472657373 PUSH1 0xD0 SHL PUSH1 0x64 DUP3 ADD MSTORE PUSH1 0x84 ADD PUSH2 0x2DB JUMP JUMPDEST PUSH2 0x31E DUP2 PUSH2 0x698 JUMP JUMPDEST PUSH2 0x639 PUSH2 0x63E JUMP JUMPDEST PUSH1 0x2 SSTORE JUMP JUMPDEST PUSH1 0x0 SLOAD PUSH1 0x1 PUSH1 0x1 PUSH1 0xA0 SHL SUB AND CALLER EQ PUSH2 0x333 JUMPI PUSH1 0x40 MLOAD PUSH3 0x461BCD PUSH1 0xE5 SHL DUP2 MSTORE PUSH1 0x20 PUSH1 0x4 DUP3 ADD DUP2 SWAP1 MSTORE PUSH1 0x24 DUP3 ADD MSTORE PUSH32 0x4F776E61626C653A2063616C6C6572206973206E6F7420746865206F776E6572 PUSH1 0x44 DUP3 ADD MSTORE PUSH1 0x64 ADD PUSH2 0x2DB JUMP JUMPDEST PUSH1 0x0 DUP1 SLOAD PUSH1 0x1 PUSH1 0x1 PUSH1 0xA0 SHL SUB DUP4 DUP2 AND PUSH1 0x1 PUSH1 0x1 PUSH1 0xA0 SHL SUB NOT DUP4 AND DUP2 OR DUP5 SSTORE PUSH1 0x40 MLOAD SWAP2 SWAP1 SWAP3 AND SWAP3 DUP4 SWAP2 PUSH32 0x8BE0079C531659141344CD1FD0A4F28419497F9722A3DAAFE3B4186F6B6457E0 SWAP2 SWAP1 LOG3 POP POP JUMP JUMPDEST PUSH1 0x0 DUP1 JUMPDEST PUSH1 0x7 SLOAD DUP2 LT ISZERO PUSH2 0x735 JUMPI PUSH1 0x7 DUP2 DUP2 SLOAD DUP2 LT PUSH2 0x709 JUMPI PUSH2 0x709 PUSH2 0x8C4 JUMP JUMPDEST SWAP1 PUSH1 0x0 MSTORE PUSH1 0x20 PUSH1 0x0 KECCAK256 ADD SLOAD DUP4 SUB PUSH2 0x723 JUMPI POP PUSH1 0x1 SWAP3 SWAP2 POP POP JUMP JUMPDEST DUP1 PUSH2 0x72D DUP2 PUSH2 0x8AB JUMP JUMPDEST SWAP2 POP POP PUSH2 0x6EC JUMP JUMPDEST POP PUSH1 0x0 SWAP3 SWAP2 POP POP JUMP JUMPDEST PUSH1 0x0 DUP1 PUSH8 0xDE0B6B3A7640000 PUSH2 0x754 DUP5 DUP7 PUSH2 0x856 JUMP JUMPDEST PUSH2 0x75E SWAP2 SWAP1 PUSH2 0x883 JUMP JUMPDEST SWAP2 POP POP JUMPDEST SWAP3 SWAP2 POP POP JUMP JUMPDEST PUSH1 0x0 DUP1 PUSH1 0xA TIMESTAMP CALLER PUSH1 0x1 SLOAD PUSH1 0x40 MLOAD PUSH1 0x20 ADD PUSH2 0x7A7 SWAP4 SWAP3 SWAP2 SWAP1 SWAP3 DUP4 MSTORE PUSH1 0x60 SWAP2 SWAP1 SWAP2 SHL PUSH12 0xFFFFFFFFFFFFFFFFFFFFFFFF NOT AND PUSH1 0x20 DUP4 ADD MSTORE PUSH1 0x34 DUP3 ADD MSTORE PUSH1 0x54 ADD SWAP1 JUMP JUMPDEST PUSH1 0x40 MLOAD PUSH1 0x20 DUP2 DUP4 SUB SUB DUP2 MSTORE SWAP1 PUSH1 0x40 MSTORE DUP1 MLOAD SWAP1 PUSH1 0x20 ADD KECCAK256 PUSH1 0x0 SHR PUSH2 0x7CA SWAP2 SWAP1 PUSH2 0x897 JUMP JUMPDEST PUSH2 0x762 SWAP1 PUSH1 0x1 PUSH2 0x8DA JUMP JUMPDEST PUSH1 0x0 PUSH1 0x20 DUP3 DUP5 SUB SLT ISZERO PUSH2 0x7E7 JUMPI PUSH1 0x0 DUP1 REVERT JUMPDEST POP CALLDATALOAD SWAP2 SWAP1 POP JUMP JUMPDEST PUSH1 0x0 PUSH1 0x20 DUP3 DUP5 SUB SLT ISZERO PUSH2 0x800 JUMPI PUSH1 0x0 DUP1 REVERT JUMPDEST DUP2 CALLDATALOAD DUP1 ISZERO ISZERO DUP2 EQ PUSH2 0x810 JUMPI PUSH1 0x0 DUP1 REVERT JUMPDEST SWAP4 SWAP3 POP POP POP JUMP JUMPDEST PUSH1 0x0 PUSH1 0x20 DUP3 DUP5 SUB SLT ISZERO PUSH2 0x829 JUMPI PUSH1 0x0 DUP1 REVERT JUMPDEST DUP2 CALLDATALOAD PUSH1 0x1 PUSH1 0x1 PUSH1 0xA0 SHL SUB DUP2 AND DUP2 EQ PUSH2 0x810 JUMPI PUSH1 0x0 DUP1 REVERT JUMPDEST PUSH4 0x4E487B71 PUSH1 0xE0 SHL PUSH1 0x0 MSTORE PUSH1 0x11 PUSH1 0x4 MSTORE PUSH1 0x24 PUSH1 0x0 REVERT JUMPDEST DUP1 DUP3 MUL DUP2 ISZERO DUP3 DUP3 DIV DUP5 EQ OR PUSH2 0x762 JUMPI PUSH2 0x762 PUSH2 0x840 JUMP JUMPDEST PUSH4 0x4E487B71 PUSH1 0xE0 SHL PUSH1 0x0 MSTORE PUSH1 0x12 PUSH1 0x4 MSTORE PUSH1 0x24 PUSH1 0x0 REVERT JUMPDEST PUSH1 0x0 DUP3 PUSH2 0x892 JUMPI PUSH2 0x892 PUSH2 0x86D JUMP JUMPDEST POP DIV SWAP1 JUMP JUMPDEST PUSH1 0x0 DUP3 PUSH2 0x8A6 JUMPI PUSH2 0x8A6 PUSH2 0x86D JUMP JUMPDEST POP MOD SWAP1 JUMP JUMPDEST PUSH1 0x0 PUSH1 0x1 DUP3 ADD PUSH2 0x8BD JUMPI PUSH2 0x8BD PUSH2 0x840 JUMP JUMPDEST POP PUSH1 0x1 ADD SWAP1 JUMP JUMPDEST PUSH4 0x4E487B71 PUSH1 0xE0 SHL PUSH1 0x0 MSTORE PUSH1 0x32 PUSH1 0x4 MSTORE PUSH1 0x24 PUSH1 0x0 REVERT JUMPDEST DUP1 DUP3 ADD DUP1 DUP3 GT ISZERO PUSH2 0x762 JUMPI PUSH2 0x762 PUSH2 0x840 JUMP INVALID LOG2 PUSH5 0x6970667358 0x22 SLT KECCAK256 0xF 0xAF DUP6 0xCD PUSH9 0xD400B9C6D108FC8D24 0x4B 0x4D 0xAB 0xD0 PUSH23 0x67BABD871B919B3E89227C0B3164736F6C634300081200 CALLER "},"methodIdentifiers":{"allowedBetAmounts(uint256)":"c9e2774c","getBalance()":"12065fe0","getBonus()":"8bdff161","getOwner()":"893d20e8","getRtp()":"b62aaa21","getTotalHead()":"c5f22083","getTotalTail()":"0b023a23","owner()":"8da5cb5b","play(bool)":"c23c87d5","renounceOwnership()":"715018a6","setBonus(uint256)":"0b98f975","setRtp(uint256)":"f303773e","topUpBalance()":"7efff887","transferOwnership(address)":"f2fde38b","withdrawFunds()":"24600fc3"}}}}}