{"contracts/HeadOrTailGame.sol":{"HeadOrTailGame":{"abi":[{"inputs":[{"internalType":"uint64","name":"subscriptionId","type":"uint64"},{"internalType":"bytes32","name":"gasLane","type":"bytes32"},{"internalType":"uint32","name":"callbackGasLimit","type":"uint32"},{"internalType":"address","name":"vrfCoordinatorV2","type":"address"}],"stateMutability":"nonpayable","type":"constructor"},{"inputs":[{"internalType":"address","name":"have","type":"address"},{"internalType":"address","name":"want","type":"address"}],"name":"OnlyCoordinatorCanFulfill","type":"error"},{"anonymous":false,"inputs":[{"indexed":true,"internalType":"address","name":"player","type":"address"},{"indexed":true,"internalType":"uint256","name":"gameId","type":"uint256"},{"indexed":true,"internalType":"bool","name":"isWinner","type":"bool"},{"indexed":false,"internalType":"uint256","name":"betAmount","type":"uint256"},{"indexed":false,"internalType":"uint256","name":"amountWon","type":"uint256"},{"indexed":false,"internalType":"bool","name":"bonus","type":"bool"},{"indexed":false,"internalType":"bool","name":"isHead","type":"bool"}],"name":"GameResult","type":"event"},{"anonymous":false,"inputs":[{"indexed":true,"internalType":"address","name":"previousOwner","type":"address"},{"indexed":true,"internalType":"address","name":"newOwner","type":"address"}],"name":"OwnershipTransferred","type":"event"},{"anonymous":false,"inputs":[{"indexed":true,"internalType":"uint256","name":"requestId","type":"uint256"}],"name":"RequestedRandomNumber","type":"event"},{"inputs":[{"internalType":"uint256","name":"","type":"uint256"}],"name":"allowedBetAmounts","outputs":[{"internalType":"uint256","name":"","type":"uint256"}],"stateMutability":"view","type":"function"},{"inputs":[{"internalType":"uint256","name":"","type":"uint256"}],"name":"gameStatus","outputs":[{"internalType":"uint256","name":"fees","type":"uint256"},{"internalType":"uint256","name":"randomWord","type":"uint256"},{"internalType":"address","name":"player","type":"address"},{"internalType":"bool","name":"isWinner","type":"bool"},{"internalType":"bool","name":"fulfilled","type":"bool"},{"internalType":"bool","name":"isHead","type":"bool"}],"stateMutability":"view","type":"function"},{"inputs":[],"name":"getBalance","outputs":[{"internalType":"uint256","name":"","type":"uint256"}],"stateMutability":"view","type":"function"},{"inputs":[],"name":"getBonus","outputs":[{"internalType":"uint256","name":"","type":"uint256"}],"stateMutability":"view","type":"function"},{"inputs":[],"name":"getOwner","outputs":[{"internalType":"address","name":"","type":"address"}],"stateMutability":"view","type":"function"},{"inputs":[],"name":"getRtp","outputs":[{"internalType":"uint256","name":"","type":"uint256"}],"stateMutability":"view","type":"function"},{"inputs":[],"name":"getTotalHead","outputs":[{"internalType":"uint256","name":"","type":"uint256"}],"stateMutability":"view","type":"function"},{"inputs":[],"name":"getTotalTail","outputs":[{"internalType":"uint256","name":"","type":"uint256"}],"stateMutability":"view","type":"function"},{"inputs":[],"name":"owner","outputs":[{"internalType":"address","name":"","type":"address"}],"stateMutability":"view","type":"function"},{"inputs":[{"internalType":"bool","name":"choice","type":"bool"}],"name":"play","outputs":[{"internalType":"uint256","name":"","type":"uint256"}],"stateMutability":"payable","type":"function"},{"inputs":[],"name":"randomResult","outputs":[{"internalType":"uint256","name":"","type":"uint256"}],"stateMutability":"view","type":"function"},{"inputs":[{"internalType":"uint256","name":"requestId","type":"uint256"},{"internalType":"uint256[]","name":"randomWords","type":"uint256[]"}],"name":"rawFulfillRandomWords","outputs":[],"stateMutability":"nonpayable","type":"function"},{"inputs":[],"name":"renounceOwnership","outputs":[],"stateMutability":"nonpayable","type":"function"},{"inputs":[{"internalType":"uint256","name":"_bonus","type":"uint256"}],"name":"setBonus","outputs":[],"stateMutability":"nonpayable","type":"function"},{"inputs":[{"internalType":"uint256","name":"_rtp","type":"uint256"}],"name":"setRtp","outputs":[],"stateMutability":"nonpayable","type":"function"},{"inputs":[],"name":"topUpBalance","outputs":[],"stateMutability":"payable","type":"function"},{"inputs":[{"internalType":"address","name":"newOwner","type":"address"}],"name":"transferOwnership","outputs":[],"stateMutability":"nonpayable","type":"function"},{"inputs":[],"name":"withdrawFunds","outputs":[],"stateMutability":"nonpayable","type":"function"}],"evm":{"bytecode":{"linkReferences":{},"object":"6101206040523480156200001257600080fd5b506040516200104b3803806200104b8339810160408190526200003591620001ad565b6001600160a01b0381166080526200004d33620000eb565b601160025560166003556000600155600480556040805160a081018252662386f26fc10000815266470de4df8200006020820152666a94d74f43000091810191909152668e1bc9bf040000606082015266b1a2bc2ec500006080820152620000ba9060089060056200013b565b506001600160a01b031660a05260e0919091526001600160401b0390911660c05263ffffffff166101005262000227565b600080546001600160a01b038381166001600160a01b0319831681178455604051919092169283917f8be0079c531659141344cd1fd0a4f28419497f9722a3daafe3b4186f6b6457e09190a35050565b82805482825590600052602060002090810192821562000184579160200282015b8281111562000184578251829066ffffffffffffff169055916020019190600101906200015c565b506200019292915062000196565b5090565b5b8082111562000192576000815560010162000197565b60008060008060808587031215620001c457600080fd5b84516001600160401b0381168114620001dc57600080fd5b60208601516040870151919550935063ffffffff81168114620001fe57600080fd5b60608601519092506001600160a01b03811681146200021c57600080fd5b939692955090935050565b60805160a05160c05160e05161010051610dd8620002736000396000610658015260006105f6015260006106250152600061068901526000818161038e01526103d00152610dd86000f3fe6080604052600436106101095760003560e01c8063893d20e811610095578063c23c87d511610064578063c23c87d5146102ee578063c5f2208314610301578063c9e2774c14610316578063f2fde38b14610336578063f303773e1461035657600080fd5b8063893d20e8146102745780638bdff161146102a65780638da5cb5b146102bb578063b62aaa21146102d957600080fd5b806324600fc3116100dc57806324600fc31461018757806334239c9c1461019c57806342619f6614610241578063715018a6146102575780637efff8871461026c57600080fd5b80630b023a231461010e5780630b98f9751461013257806312065fe0146101545780631fe543e314610167575b600080fd5b34801561011a57600080fd5b506006545b6040519081526020015b60405180910390f35b34801561013e57600080fd5b5061015261014d366004610ba4565b610376565b005b34801561016057600080fd5b504761011f565b34801561017357600080fd5b50610152610182366004610bd3565b610383565b34801561019357600080fd5b50610152610410565b3480156101a857600080fd5b506102026101b7366004610ba4565b6009602052600090815260409020805460018201546002909201549091906001600160a01b0381169060ff600160a01b8204811691600160a81b8104821691600160b01b9091041686565b6040805196875260208701959095526001600160a01b0390931693850193909352151560608401529015156080830152151560a082015260c001610129565b34801561024d57600080fd5b5061011f60075481565b34801561026357600080fd5b506101526104a5565b6101526104b9565b34801561028057600080fd5b506000546001600160a01b03165b6040516001600160a01b039091168152602001610129565b3480156102b257600080fd5b5060035461011f565b3480156102c757600080fd5b506000546001600160a01b031661028e565b3480156102e557600080fd5b5060025461011f565b61011f6102fc366004610c9d565b610509565b34801561030d57600080fd5b5060055461011f565b34801561032257600080fd5b5061011f610331366004610ba4565b6107e1565b34801561034257600080fd5b50610152610351366004610cc6565b610802565b34801561036257600080fd5b50610152610371366004610ba4565b610878565b61037e610885565b600355565b336001600160a01b037f000000000000000000000000000000000000000000000000000000000000000016146104025760405163073e64fd60e21b81523360048201526001600160a01b037f00000000000000000000000000000000000000000000000000000000000000001660248201526044015b60405180910390fd5b61040c82826108df565b5050565b610418610885565b600047116104685760405162461bcd60e51b815260206004820152601a60248201527f436f6e74726163742062616c616e636520697320656d7074792e00000000000060448201526064016103f9565b600080546040516001600160a01b03909116914780156108fc02929091818181858888f193505050501580156104a2573d6000803e3d6000fd5b50565b6104ad610885565b6104b76000610ad4565b565b6104c1610885565b600034116104b75760405162461bcd60e51b8152602060048201526015602482015274125b9d985b1a59081d1bdc0b5d5c08185b5bdd5b9d605a1b60448201526064016103f9565b600061051434610b24565b6105755760405162461bcd60e51b815260206004820152602c60248201527f506c656173652073656e6420636f727265637420616d6f756e7420746f20706c60448201526b30bc903a34329033b0b6b29760a11b60648201526084016103f9565b476105a134600a600354670de0b6b3a76400006105929190610d05565b61059c9190610d32565b610b7a565b106105e75760405162461bcd60e51b81526020600482015260166024820152752bb2903430bb329033b7b732903130b735b93ab83a1760511b60448201526064016103f9565b6040516305d3b1d360e41b81527f0000000000000000000000000000000000000000000000000000000000000000600482015267ffffffffffffffff7f00000000000000000000000000000000000000000000000000000000000000001660248201526003604482015263ffffffff7f0000000000000000000000000000000000000000000000000000000000000000166064820152600160848201526000907f00000000000000000000000000000000000000000000000000000000000000006001600160a01b031690635d3b1d309060a4016020604051808303816000875af11580156106da573d6000803e3d6000fd5b505050506040513d601f19601f820116820180604052508101906106fe9190610d46565b6040805160c081018252600080825260208083018281523384860190815260608501848152608086018581528b151560a08801908152898752600990955287862096518755925160018701559051600290950180549151925193511515600160b01b0260ff60b01b19941515600160a81b029490941661ffff60a81b19931515600160a01b026001600160a81b03199093166001600160a01b03979097169690961791909117919091169390931717909155905191925082917f28a75f9a78cd502748cecc04795531fd051165f83e4be1270400ac7130873e2e9190a292915050565b600881815481106107f157600080fd5b600091825260209091200154905081565b61080a610885565b6001600160a01b03811661086f5760405162461bcd60e51b815260206004820152602660248201527f4f776e61626c653a206e6577206f776e657220697320746865207a65726f206160448201526564647265737360d01b60648201526084016103f9565b6104a281610ad4565b610880610885565b600255565b6000546001600160a01b031633146104b75760405162461bcd60e51b815260206004820181905260248201527f4f776e61626c653a2063616c6c6572206973206e6f7420746865206f776e657260448201526064016103f9565b6000828152600960205260408120600201805460ff60a81b1916600160a81b179055815182919061091257610912610d5f565b60200260200101516009600084815260200190815260200160002060010181905550600060648260008151811061094b5761094b610d5f565b602002602001015161095d9190610d75565b9050600061096c600283610d75565b60008581526009602052604090206002015460045491159250600160b01b900460ff1615158214908310826109b457600680549060006109ab83610d89565b919050556109c9565b600580549060006109c483610d89565b919050555b5060008215610a63576109fb34600a846109e5576002546109e9565b6003545b61059290670de0b6b3a7640000610d05565b905047811115610a085750475b600087815260096020526040808220600201805460ff60a01b198116600160a01b1790915590516001600160a01b039091169183156108fc02918491818181858888f19350505050158015610a61573d6000803e3d6000fd5b505b60018054906000610a7383610d89565b909155505060015460408051348152602081018490528415158183015286151560608201529051851515929133917f6c26b3162d7d565bf212f05fed6caf02b019f4b186feefdee65fefe4dd07b6ce9181900360800190a450505050505050565b600080546001600160a01b038381166001600160a01b0319831681178455604051919092169283917f8be0079c531659141344cd1fd0a4f28419497f9722a3daafe3b4186f6b6457e09190a35050565b6000805b600854811015610b715760088181548110610b4557610b45610d5f565b90600052602060002001548303610b5f5750600192915050565b80610b6981610d89565b915050610b28565b50600092915050565b600080670de0b6b3a7640000610b908486610d05565b610b9a9190610d32565b9150505b92915050565b600060208284031215610bb657600080fd5b5035919050565b634e487b7160e01b600052604160045260246000fd5b60008060408385031215610be657600080fd5b8235915060208084013567ffffffffffffffff80821115610c0657600080fd5b818601915086601f830112610c1a57600080fd5b813581811115610c2c57610c2c610bbd565b8060051b604051601f19603f83011681018181108582111715610c5157610c51610bbd565b604052918252848201925083810185019189831115610c6f57600080fd5b938501935b82851015610c8d57843584529385019392850192610c74565b8096505050505050509250929050565b600060208284031215610caf57600080fd5b81358015158114610cbf57600080fd5b9392505050565b600060208284031215610cd857600080fd5b81356001600160a01b0381168114610cbf57600080fd5b634e487b7160e01b600052601160045260246000fd5b8082028115828204841417610b9e57610b9e610cef565b634e487b7160e01b600052601260045260246000fd5b600082610d4157610d41610d1c565b500490565b600060208284031215610d5857600080fd5b5051919050565b634e487b7160e01b600052603260045260246000fd5b600082610d8457610d84610d1c565b500690565b600060018201610d9b57610d9b610cef565b506001019056fea264697066735822122037bab1024463731bc696856698bbdc446708813301aacab9e7a867752b0c420264736f6c63430008120033","opcodes":"PUSH2 0x120 PUSH1 0x40 MSTORE CALLVALUE DUP1 ISZERO PUSH3 0x12 JUMPI PUSH1 0x0 DUP1 REVERT JUMPDEST POP PUSH1 0x40 MLOAD PUSH3 0x104B CODESIZE SUB DUP1 PUSH3 0x104B DUP4 CODECOPY DUP2 ADD PUSH1 0x40 DUP2 SWAP1 MSTORE PUSH3 0x35 SWAP2 PUSH3 0x1AD JUMP JUMPDEST PUSH1 0x1 PUSH1 0x1 PUSH1 0xA0 SHL SUB DUP2 AND PUSH1 0x80 MSTORE PUSH3 0x4D CALLER PUSH3 0xEB JUMP JUMPDEST PUSH1 0x11 PUSH1 0x2 SSTORE PUSH1 0x16 PUSH1 0x3 SSTORE PUSH1 0x0 PUSH1 0x1 SSTORE PUSH1 0x4 DUP1 SSTORE PUSH1 0x40 DUP1 MLOAD PUSH1 0xA0 DUP2 ADD DUP3 MSTORE PUSH7 0x2386F26FC10000 DUP2 MSTORE PUSH7 0x470DE4DF820000 PUSH1 0x20 DUP3 ADD MSTORE PUSH7 0x6A94D74F430000 SWAP2 DUP2 ADD SWAP2 SWAP1 SWAP2 MSTORE PUSH7 0x8E1BC9BF040000 PUSH1 0x60 DUP3 ADD MSTORE PUSH7 0xB1A2BC2EC50000 PUSH1 0x80 DUP3 ADD MSTORE PUSH3 0xBA SWAP1 PUSH1 0x8 SWAP1 PUSH1 0x5 PUSH3 0x13B JUMP JUMPDEST POP PUSH1 0x1 PUSH1 0x1 PUSH1 0xA0 SHL SUB AND PUSH1 0xA0 MSTORE PUSH1 0xE0 SWAP2 SWAP1 SWAP2 MSTORE PUSH1 0x1 PUSH1 0x1 PUSH1 0x40 SHL SUB SWAP1 SWAP2 AND PUSH1 0xC0 MSTORE PUSH4 0xFFFFFFFF AND PUSH2 0x100 MSTORE PUSH3 0x227 JUMP JUMPDEST PUSH1 0x0 DUP1 SLOAD PUSH1 0x1 PUSH1 0x1 PUSH1 0xA0 SHL SUB DUP4 DUP2 AND PUSH1 0x1 PUSH1 0x1 PUSH1 0xA0 SHL SUB NOT DUP4 AND DUP2 OR DUP5 SSTORE PUSH1 0x40 MLOAD SWAP2 SWAP1 SWAP3 AND SWAP3 DUP4 SWAP2 PUSH32 0x8BE0079C531659141344CD1FD0A4F28419497F9722A3DAAFE3B4186F6B6457E0 SWAP2 SWAP1 LOG3 POP POP JUMP JUMPDEST DUP3 DUP1 SLOAD DUP3 DUP3 SSTORE SWAP1 PUSH1 0x0 MSTORE PUSH1 0x20 PUSH1 0x0 KECCAK256 SWAP1 DUP2 ADD SWAP3 DUP3 ISZERO PUSH3 0x184 JUMPI SWAP2 PUSH1 0x20 MUL DUP3 ADD JUMPDEST DUP3 DUP2 GT ISZERO PUSH3 0x184 JUMPI DUP3 MLOAD DUP3 SWAP1 PUSH7 0xFFFFFFFFFFFFFF AND SWAP1 SSTORE SWAP2 PUSH1 0x20 ADD SWAP2 SWAP1 PUSH1 0x1 ADD SWAP1 PUSH3 0x15C JUMP JUMPDEST POP PUSH3 0x192 SWAP3 SWAP2 POP PUSH3 0x196 JUMP JUMPDEST POP SWAP1 JUMP JUMPDEST JUMPDEST DUP1 DUP3 GT ISZERO PUSH3 0x192 JUMPI PUSH1 0x0 DUP2 SSTORE PUSH1 0x1 ADD PUSH3 0x197 JUMP JUMPDEST PUSH1 0x0 DUP1 PUSH1 0x0 DUP1 PUSH1 0x80 DUP6 DUP8 SUB SLT ISZERO PUSH3 0x1C4 JUMPI PUSH1 0x0 DUP1 REVERT JUMPDEST DUP5 MLOAD PUSH1 0x1 PUSH1 0x1 PUSH1 0x40 SHL SUB DUP2 AND DUP2 EQ PUSH3 0x1DC JUMPI PUSH1 0x0 DUP1 REVERT JUMPDEST PUSH1 0x20 DUP7 ADD MLOAD PUSH1 0x40 DUP8 ADD MLOAD SWAP2 SWAP6 POP SWAP4 POP PUSH4 0xFFFFFFFF DUP2 AND DUP2 EQ PUSH3 0x1FE JUMPI PUSH1 0x0 DUP1 REVERT JUMPDEST PUSH1 0x60 DUP7 ADD MLOAD SWAP1 SWAP3 POP PUSH1 0x1 PUSH1 0x1 PUSH1 0xA0 SHL SUB DUP2 AND DUP2 EQ PUSH3 0x21C JUMPI PUSH1 0x0 DUP1 REVERT JUMPDEST SWAP4 SWAP7 SWAP3 SWAP6 POP SWAP1 SWAP4 POP POP JUMP JUMPDEST PUSH1 0x80 MLOAD PUSH1 0xA0 MLOAD PUSH1 0xC0 MLOAD PUSH1 0xE0 MLOAD PUSH2 0x100 MLOAD PUSH2 0xDD8 PUSH3 0x273 PUSH1 0x0 CODECOPY PUSH1 0x0 PUSH2 0x658 ADD MSTORE PUSH1 0x0 PUSH2 0x5F6 ADD MSTORE PUSH1 0x0 PUSH2 0x625 ADD MSTORE PUSH1 0x0 PUSH2 0x689 ADD MSTORE PUSH1 0x0 DUP2 DUP2 PUSH2 0x38E ADD MSTORE PUSH2 0x3D0 ADD MSTORE PUSH2 0xDD8 PUSH1 0x0 RETURN INVALID PUSH1 0x80 PUSH1 0x40 MSTORE PUSH1 0x4 CALLDATASIZE LT PUSH2 0x109 JUMPI PUSH1 0x0 CALLDATALOAD PUSH1 0xE0 SHR DUP1 PUSH4 0x893D20E8 GT PUSH2 0x95 JUMPI DUP1 PUSH4 0xC23C87D5 GT PUSH2 0x64 JUMPI DUP1 PUSH4 0xC23C87D5 EQ PUSH2 0x2EE JUMPI DUP1 PUSH4 0xC5F22083 EQ PUSH2 0x301 JUMPI DUP1 PUSH4 0xC9E2774C EQ PUSH2 0x316 JUMPI DUP1 PUSH4 0xF2FDE38B EQ PUSH2 0x336 JUMPI DUP1 PUSH4 0xF303773E EQ PUSH2 0x356 JUMPI PUSH1 0x0 DUP1 REVERT JUMPDEST DUP1 PUSH4 0x893D20E8 EQ PUSH2 0x274 JUMPI DUP1 PUSH4 0x8BDFF161 EQ PUSH2 0x2A6 JUMPI DUP1 PUSH4 0x8DA5CB5B EQ PUSH2 0x2BB JUMPI DUP1 PUSH4 0xB62AAA21 EQ PUSH2 0x2D9 JUMPI PUSH1 0x0 DUP1 REVERT JUMPDEST DUP1 PUSH4 0x24600FC3 GT PUSH2 0xDC JUMPI DUP1 PUSH4 0x24600FC3 EQ PUSH2 0x187 JUMPI DUP1 PUSH4 0x34239C9C EQ PUSH2 0x19C JUMPI DUP1 PUSH4 0x42619F66 EQ PUSH2 0x241 JUMPI DUP1 PUSH4 0x715018A6 EQ PUSH2 0x257 JUMPI DUP1 PUSH4 0x7EFFF887 EQ PUSH2 0x26C JUMPI PUSH1 0x0 DUP1 REVERT JUMPDEST DUP1 PUSH4 0xB023A23 EQ PUSH2 0x10E JUMPI DUP1 PUSH4 0xB98F975 EQ PUSH2 0x132 JUMPI DUP1 PUSH4 0x12065FE0 EQ PUSH2 0x154 JUMPI DUP1 PUSH4 0x1FE543E3 EQ PUSH2 0x167 JUMPI JUMPDEST PUSH1 0x0 DUP1 REVERT JUMPDEST CALLVALUE DUP1 ISZERO PUSH2 0x11A JUMPI PUSH1 0x0 DUP1 REVERT JUMPDEST POP PUSH1 0x6 SLOAD JUMPDEST PUSH1 0x40 MLOAD SWAP1 DUP2 MSTORE PUSH1 0x20 ADD JUMPDEST PUSH1 0x40 MLOAD DUP1 SWAP2 SUB SWAP1 RETURN JUMPDEST CALLVALUE DUP1 ISZERO PUSH2 0x13E JUMPI PUSH1 0x0 DUP1 REVERT JUMPDEST POP PUSH2 0x152 PUSH2 0x14D CALLDATASIZE PUSH1 0x4 PUSH2 0xBA4 JUMP JUMPDEST PUSH2 0x376 JUMP JUMPDEST STOP JUMPDEST CALLVALUE DUP1 ISZERO PUSH2 0x160 JUMPI PUSH1 0x0 DUP1 REVERT JUMPDEST POP SELFBALANCE PUSH2 0x11F JUMP JUMPDEST CALLVALUE DUP1 ISZERO PUSH2 0x173 JUMPI PUSH1 0x0 DUP1 REVERT JUMPDEST POP PUSH2 0x152 PUSH2 0x182 CALLDATASIZE PUSH1 0x4 PUSH2 0xBD3 JUMP JUMPDEST PUSH2 0x383 JUMP JUMPDEST CALLVALUE DUP1 ISZERO PUSH2 0x193 JUMPI PUSH1 0x0 DUP1 REVERT JUMPDEST POP PUSH2 0x152 PUSH2 0x410 JUMP JUMPDEST CALLVALUE DUP1 ISZERO PUSH2 0x1A8 JUMPI PUSH1 0x0 DUP1 REVERT JUMPDEST POP PUSH2 0x202 PUSH2 0x1B7 CALLDATASIZE PUSH1 0x4 PUSH2 0xBA4 JUMP JUMPDEST PUSH1 0x9 PUSH1 0x20 MSTORE PUSH1 0x0 SWAP1 DUP2 MSTORE PUSH1 0x40 SWAP1 KECCAK256 DUP1 SLOAD PUSH1 0x1 DUP3 ADD SLOAD PUSH1 0x2 SWAP1 SWAP3 ADD SLOAD SWAP1 SWAP2 SWAP1 PUSH1 0x1 PUSH1 0x1 PUSH1 0xA0 SHL SUB DUP2 AND SWAP1 PUSH1 0xFF PUSH1 0x1 PUSH1 0xA0 SHL DUP3 DIV DUP2 AND SWAP2 PUSH1 0x1 PUSH1 0xA8 SHL DUP2 DIV DUP3 AND SWAP2 PUSH1 0x1 PUSH1 0xB0 SHL SWAP1 SWAP2 DIV AND DUP7 JUMP JUMPDEST PUSH1 0x40 DUP1 MLOAD SWAP7 DUP8 MSTORE PUSH1 0x20 DUP8 ADD SWAP6 SWAP1 SWAP6 MSTORE PUSH1 0x1 PUSH1 0x1 PUSH1 0xA0 SHL SUB SWAP1 SWAP4 AND SWAP4 DUP6 ADD SWAP4 SWAP1 SWAP4 MSTORE ISZERO ISZERO PUSH1 0x60 DUP5 ADD MSTORE SWAP1 ISZERO ISZERO PUSH1 0x80 DUP4 ADD MSTORE ISZERO ISZERO PUSH1 0xA0 DUP3 ADD MSTORE PUSH1 0xC0 ADD PUSH2 0x129 JUMP JUMPDEST CALLVALUE DUP1 ISZERO PUSH2 0x24D JUMPI PUSH1 0x0 DUP1 REVERT JUMPDEST POP PUSH2 0x11F PUSH1 0x7 SLOAD DUP2 JUMP JUMPDEST CALLVALUE DUP1 ISZERO PUSH2 0x263 JUMPI PUSH1 0x0 DUP1 REVERT JUMPDEST POP PUSH2 0x152 PUSH2 0x4A5 JUMP JUMPDEST PUSH2 0x152 PUSH2 0x4B9 JUMP JUMPDEST CALLVALUE DUP1 ISZERO PUSH2 0x280 JUMPI PUSH1 0x0 DUP1 REVERT JUMPDEST POP PUSH1 0x0 SLOAD PUSH1 0x1 PUSH1 0x1 PUSH1 0xA0 SHL SUB AND JUMPDEST PUSH1 0x40 MLOAD PUSH1 0x1 PUSH1 0x1 PUSH1 0xA0 SHL SUB SWAP1 SWAP2 AND DUP2 MSTORE PUSH1 0x20 ADD PUSH2 0x129 JUMP JUMPDEST CALLVALUE DUP1 ISZERO PUSH2 0x2B2 JUMPI PUSH1 0x0 DUP1 REVERT JUMPDEST POP PUSH1 0x3 SLOAD PUSH2 0x11F JUMP JUMPDEST CALLVALUE DUP1 ISZERO PUSH2 0x2C7 JUMPI PUSH1 0x0 DUP1 REVERT JUMPDEST POP PUSH1 0x0 SLOAD PUSH1 0x1 PUSH1 0x1 PUSH1 0xA0 SHL SUB AND PUSH2 0x28E JUMP JUMPDEST CALLVALUE DUP1 ISZERO PUSH2 0x2E5 JUMPI PUSH1 0x0 DUP1 REVERT JUMPDEST POP PUSH1 0x2 SLOAD PUSH2 0x11F JUMP JUMPDEST PUSH2 0x11F PUSH2 0x2FC CALLDATASIZE PUSH1 0x4 PUSH2 0xC9D JUMP JUMPDEST PUSH2 0x509 JUMP JUMPDEST CALLVALUE DUP1 ISZERO PUSH2 0x30D JUMPI PUSH1 0x0 DUP1 REVERT JUMPDEST POP PUSH1 0x5 SLOAD PUSH2 0x11F JUMP JUMPDEST CALLVALUE DUP1 ISZERO PUSH2 0x322 JUMPI PUSH1 0x0 DUP1 REVERT JUMPDEST POP PUSH2 0x11F PUSH2 0x331 CALLDATASIZE PUSH1 0x4 PUSH2 0xBA4 JUMP JUMPDEST PUSH2 0x7E1 JUMP JUMPDEST CALLVALUE DUP1 ISZERO PUSH2 0x342 JUMPI PUSH1 0x0 DUP1 REVERT JUMPDEST POP PUSH2 0x152 PUSH2 0x351 CALLDATASIZE PUSH1 0x4 PUSH2 0xCC6 JUMP JUMPDEST PUSH2 0x802 JUMP JUMPDEST CALLVALUE DUP1 ISZERO PUSH2 0x362 JUMPI PUSH1 0x0 DUP1 REVERT JUMPDEST POP PUSH2 0x152 PUSH2 0x371 CALLDATASIZE PUSH1 0x4 PUSH2 0xBA4 JUMP JUMPDEST PUSH2 0x878 JUMP JUMPDEST PUSH2 0x37E PUSH2 0x885 JUMP JUMPDEST PUSH1 0x3 SSTORE JUMP JUMPDEST CALLER PUSH1 0x1 PUSH1 0x1 PUSH1 0xA0 SHL SUB PUSH32 0x0 AND EQ PUSH2 0x402 JUMPI PUSH1 0x40 MLOAD PUSH4 0x73E64FD PUSH1 0xE2 SHL DUP2 MSTORE CALLER PUSH1 0x4 DUP3 ADD MSTORE PUSH1 0x1 PUSH1 0x1 PUSH1 0xA0 SHL SUB PUSH32 0x0 AND PUSH1 0x24 DUP3 ADD MSTORE PUSH1 0x44 ADD JUMPDEST PUSH1 0x40 MLOAD DUP1 SWAP2 SUB SWAP1 REVERT JUMPDEST PUSH2 0x40C DUP3 DUP3 PUSH2 0x8DF JUMP JUMPDEST POP POP JUMP JUMPDEST PUSH2 0x418 PUSH2 0x885 JUMP JUMPDEST PUSH1 0x0 SELFBALANCE GT PUSH2 0x468 JUMPI PUSH1 0x40 MLOAD PUSH3 0x461BCD PUSH1 0xE5 SHL DUP2 MSTORE PUSH1 0x20 PUSH1 0x4 DUP3 ADD MSTORE PUSH1 0x1A PUSH1 0x24 DUP3 ADD MSTORE PUSH32 0x436F6E74726163742062616C616E636520697320656D7074792E000000000000 PUSH1 0x44 DUP3 ADD MSTORE PUSH1 0x64 ADD PUSH2 0x3F9 JUMP JUMPDEST PUSH1 0x0 DUP1 SLOAD PUSH1 0x40 MLOAD PUSH1 0x1 PUSH1 0x1 PUSH1 0xA0 SHL SUB SWAP1 SWAP2 AND SWAP2 SELFBALANCE DUP1 ISZERO PUSH2 0x8FC MUL SWAP3 SWAP1 SWAP2 DUP2 DUP2 DUP2 DUP6 DUP9 DUP9 CALL SWAP4 POP POP POP POP ISZERO DUP1 ISZERO PUSH2 0x4A2 JUMPI RETURNDATASIZE PUSH1 0x0 DUP1 RETURNDATACOPY RETURNDATASIZE PUSH1 0x0 REVERT JUMPDEST POP JUMP JUMPDEST PUSH2 0x4AD PUSH2 0x885 JUMP JUMPDEST PUSH2 0x4B7 PUSH1 0x0 PUSH2 0xAD4 JUMP JUMPDEST JUMP JUMPDEST PUSH2 0x4C1 PUSH2 0x885 JUMP JUMPDEST PUSH1 0x0 CALLVALUE GT PUSH2 0x4B7 JUMPI PUSH1 0x40 MLOAD PUSH3 0x461BCD PUSH1 0xE5 SHL DUP2 MSTORE PUSH1 0x20 PUSH1 0x4 DUP3 ADD MSTORE PUSH1 0x15 PUSH1 0x24 DUP3 ADD MSTORE PUSH21 0x125B9D985B1A59081D1BDC0B5D5C08185B5BDD5B9D PUSH1 0x5A SHL PUSH1 0x44 DUP3 ADD MSTORE PUSH1 0x64 ADD PUSH2 0x3F9 JUMP JUMPDEST PUSH1 0x0 PUSH2 0x514 CALLVALUE PUSH2 0xB24 JUMP JUMPDEST PUSH2 0x575 JUMPI PUSH1 0x40 MLOAD PUSH3 0x461BCD PUSH1 0xE5 SHL DUP2 MSTORE PUSH1 0x20 PUSH1 0x4 DUP3 ADD MSTORE PUSH1 0x2C PUSH1 0x24 DUP3 ADD MSTORE PUSH32 0x506C656173652073656E6420636F727265637420616D6F756E7420746F20706C PUSH1 0x44 DUP3 ADD MSTORE PUSH12 0x30BC903A34329033B0B6B297 PUSH1 0xA1 SHL PUSH1 0x64 DUP3 ADD MSTORE PUSH1 0x84 ADD PUSH2 0x3F9 JUMP JUMPDEST SELFBALANCE PUSH2 0x5A1 CALLVALUE PUSH1 0xA PUSH1 0x3 SLOAD PUSH8 0xDE0B6B3A7640000 PUSH2 0x592 SWAP2 SWAP1 PUSH2 0xD05 JUMP JUMPDEST PUSH2 0x59C SWAP2 SWAP1 PUSH2 0xD32 JUMP JUMPDEST PUSH2 0xB7A JUMP JUMPDEST LT PUSH2 0x5E7 JUMPI PUSH1 0x40 MLOAD PUSH3 0x461BCD PUSH1 0xE5 SHL DUP2 MSTORE PUSH1 0x20 PUSH1 0x4 DUP3 ADD MSTORE PUSH1 0x16 PUSH1 0x24 DUP3 ADD MSTORE PUSH22 0x2BB2903430BB329033B7B732903130B735B93AB83A17 PUSH1 0x51 SHL PUSH1 0x44 DUP3 ADD MSTORE PUSH1 0x64 ADD PUSH2 0x3F9 JUMP JUMPDEST PUSH1 0x40 MLOAD PUSH4 0x5D3B1D3 PUSH1 0xE4 SHL DUP2 MSTORE PUSH32 0x0 PUSH1 0x4 DUP3 ADD MSTORE PUSH8 0xFFFFFFFFFFFFFFFF PUSH32 0x0 AND PUSH1 0x24 DUP3 ADD MSTORE PUSH1 0x3 PUSH1 0x44 DUP3 ADD MSTORE PUSH4 0xFFFFFFFF PUSH32 0x0 AND PUSH1 0x64 DUP3 ADD MSTORE PUSH1 0x1 PUSH1 0x84 DUP3 ADD MSTORE PUSH1 0x0 SWAP1 PUSH32 0x0 PUSH1 0x1 PUSH1 0x1 PUSH1 0xA0 SHL SUB AND SWAP1 PUSH4 0x5D3B1D30 SWAP1 PUSH1 0xA4 ADD PUSH1 0x20 PUSH1 0x40 MLOAD DUP1 DUP4 SUB DUP2 PUSH1 0x0 DUP8 GAS CALL ISZERO DUP1 ISZERO PUSH2 0x6DA JUMPI RETURNDATASIZE PUSH1 0x0 DUP1 RETURNDATACOPY RETURNDATASIZE PUSH1 0x0 REVERT JUMPDEST POP POP POP POP PUSH1 0x40 MLOAD RETURNDATASIZE PUSH1 0x1F NOT PUSH1 0x1F DUP3 ADD AND DUP3 ADD DUP1 PUSH1 0x40 MSTORE POP DUP2 ADD SWAP1 PUSH2 0x6FE SWAP2 SWAP1 PUSH2 0xD46 JUMP JUMPDEST PUSH1 0x40 DUP1 MLOAD PUSH1 0xC0 DUP2 ADD DUP3 MSTORE PUSH1 0x0 DUP1 DUP3 MSTORE PUSH1 0x20 DUP1 DUP4 ADD DUP3 DUP2 MSTORE CALLER DUP5 DUP7 ADD SWAP1 DUP2 MSTORE PUSH1 0x60 DUP6 ADD DUP5 DUP2 MSTORE PUSH1 0x80 DUP7 ADD DUP6 DUP2 MSTORE DUP12 ISZERO ISZERO PUSH1 0xA0 DUP9 ADD SWAP1 DUP2 MSTORE DUP10 DUP8 MSTORE PUSH1 0x9 SWAP1 SWAP6 MSTORE DUP8 DUP7 KECCAK256 SWAP7 MLOAD DUP8 SSTORE SWAP3 MLOAD PUSH1 0x1 DUP8 ADD SSTORE SWAP1 MLOAD PUSH1 0x2 SWAP1 SWAP6 ADD DUP1 SLOAD SWAP2 MLOAD SWAP3 MLOAD SWAP4 MLOAD ISZERO ISZERO PUSH1 0x1 PUSH1 0xB0 SHL MUL PUSH1 0xFF PUSH1 0xB0 SHL NOT SWAP5 ISZERO ISZERO PUSH1 0x1 PUSH1 0xA8 SHL MUL SWAP5 SWAP1 SWAP5 AND PUSH2 0xFFFF PUSH1 0xA8 SHL NOT SWAP4 ISZERO ISZERO PUSH1 0x1 PUSH1 0xA0 SHL MUL PUSH1 0x1 PUSH1 0x1 PUSH1 0xA8 SHL SUB NOT SWAP1 SWAP4 AND PUSH1 0x1 PUSH1 0x1 PUSH1 0xA0 SHL SUB SWAP8 SWAP1 SWAP8 AND SWAP7 SWAP1 SWAP7 OR SWAP2 SWAP1 SWAP2 OR SWAP2 SWAP1 SWAP2 AND SWAP4 SWAP1 SWAP4 OR OR SWAP1 SWAP2 SSTORE SWAP1 MLOAD SWAP2 SWAP3 POP DUP3 SWAP2 PUSH32 0x28A75F9A78CD502748CECC04795531FD051165F83E4BE1270400AC7130873E2E SWAP2 SWAP1 LOG2 SWAP3 SWAP2 POP POP JUMP JUMPDEST PUSH1 0x8 DUP2 DUP2 SLOAD DUP2 LT PUSH2 0x7F1 JUMPI PUSH1 0x0 DUP1 REVERT JUMPDEST PUSH1 0x0 SWAP2 DUP3 MSTORE PUSH1 0x20 SWAP1 SWAP2 KECCAK256 ADD SLOAD SWAP1 POP DUP2 JUMP JUMPDEST PUSH2 0x80A PUSH2 0x885 JUMP JUMPDEST PUSH1 0x1 PUSH1 0x1 PUSH1 0xA0 SHL SUB DUP2 AND PUSH2 0x86F JUMPI PUSH1 0x40 MLOAD PUSH3 0x461BCD PUSH1 0xE5 SHL DUP2 MSTORE PUSH1 0x20 PUSH1 0x4 DUP3 ADD MSTORE PUSH1 0x26 PUSH1 0x24 DUP3 ADD MSTORE PUSH32 0x4F776E61626C653A206E6577206F776E657220697320746865207A65726F2061 PUSH1 0x44 DUP3 ADD MSTORE PUSH6 0x646472657373 PUSH1 0xD0 SHL PUSH1 0x64 DUP3 ADD MSTORE PUSH1 0x84 ADD PUSH2 0x3F9 JUMP JUMPDEST PUSH2 0x4A2 DUP2 PUSH2 0xAD4 JUMP JUMPDEST PUSH2 0x880 PUSH2 0x885 JUMP JUMPDEST PUSH1 0x2 SSTORE JUMP JUMPDEST PUSH1 0x0 SLOAD PUSH1 0x1 PUSH1 0x1 PUSH1 0xA0 SHL SUB AND CALLER EQ PUSH2 0x4B7 JUMPI PUSH1 0x40 MLOAD PUSH3 0x461BCD PUSH1 0xE5 SHL DUP2 MSTORE PUSH1 0x20 PUSH1 0x4 DUP3 ADD DUP2 SWAP1 MSTORE PUSH1 0x24 DUP3 ADD MSTORE PUSH32 0x4F776E61626C653A2063616C6C6572206973206E6F7420746865206F776E6572 PUSH1 0x44 DUP3 ADD MSTORE PUSH1 0x64 ADD PUSH2 0x3F9 JUMP JUMPDEST PUSH1 0x0 DUP3 DUP2 MSTORE PUSH1 0x9 PUSH1 0x20 MSTORE PUSH1 0x40 DUP2 KECCAK256 PUSH1 0x2 ADD DUP1 SLOAD PUSH1 0xFF PUSH1 0xA8 SHL NOT AND PUSH1 0x1 PUSH1 0xA8 SHL OR SWAP1 SSTORE DUP2 MLOAD DUP3 SWAP2 SWAP1 PUSH2 0x912 JUMPI PUSH2 0x912 PUSH2 0xD5F JUMP JUMPDEST PUSH1 0x20 MUL PUSH1 0x20 ADD ADD MLOAD PUSH1 0x9 PUSH1 0x0 DUP5 DUP2 MSTORE PUSH1 0x20 ADD SWAP1 DUP2 MSTORE PUSH1 0x20 ADD PUSH1 0x0 KECCAK256 PUSH1 0x1 ADD DUP2 SWAP1 SSTORE POP PUSH1 0x0 PUSH1 0x64 DUP3 PUSH1 0x0 DUP2 MLOAD DUP2 LT PUSH2 0x94B JUMPI PUSH2 0x94B PUSH2 0xD5F JUMP JUMPDEST PUSH1 0x20 MUL PUSH1 0x20 ADD ADD MLOAD PUSH2 0x95D SWAP2 SWAP1 PUSH2 0xD75 JUMP JUMPDEST SWAP1 POP PUSH1 0x0 PUSH2 0x96C PUSH1 0x2 DUP4 PUSH2 0xD75 JUMP JUMPDEST PUSH1 0x0 DUP6 DUP2 MSTORE PUSH1 0x9 PUSH1 0x20 MSTORE PUSH1 0x40 SWAP1 KECCAK256 PUSH1 0x2 ADD SLOAD PUSH1 0x4 SLOAD SWAP2 ISZERO SWAP3 POP PUSH1 0x1 PUSH1 0xB0 SHL SWAP1 DIV PUSH1 0xFF AND ISZERO ISZERO DUP3 EQ SWAP1 DUP4 LT DUP3 PUSH2 0x9B4 JUMPI PUSH1 0x6 DUP1 SLOAD SWAP1 PUSH1 0x0 PUSH2 0x9AB DUP4 PUSH2 0xD89 JUMP JUMPDEST SWAP2 SWAP1 POP SSTORE PUSH2 0x9C9 JUMP JUMPDEST PUSH1 0x5 DUP1 SLOAD SWAP1 PUSH1 0x0 PUSH2 0x9C4 DUP4 PUSH2 0xD89 JUMP JUMPDEST SWAP2 SWAP1 POP SSTORE JUMPDEST POP PUSH1 0x0 DUP3 ISZERO PUSH2 0xA63 JUMPI PUSH2 0x9FB CALLVALUE PUSH1 0xA DUP5 PUSH2 0x9E5 JUMPI PUSH1 0x2 SLOAD PUSH2 0x9E9 JUMP JUMPDEST PUSH1 0x3 SLOAD JUMPDEST PUSH2 0x592 SWAP1 PUSH8 0xDE0B6B3A7640000 PUSH2 0xD05 JUMP JUMPDEST SWAP1 POP SELFBALANCE DUP2 GT ISZERO PUSH2 0xA08 JUMPI POP SELFBALANCE JUMPDEST PUSH1 0x0 DUP8 DUP2 MSTORE PUSH1 0x9 PUSH1 0x20 MSTORE PUSH1 0x40 DUP1 DUP3 KECCAK256 PUSH1 0x2 ADD DUP1 SLOAD PUSH1 0xFF PUSH1 0xA0 SHL NOT DUP2 AND PUSH1 0x1 PUSH1 0xA0 SHL OR SWAP1 SWAP2 SSTORE SWAP1 MLOAD PUSH1 0x1 PUSH1 0x1 PUSH1 0xA0 SHL SUB SWAP1 SWAP2 AND SWAP2 DUP4 ISZERO PUSH2 0x8FC MUL SWAP2 DUP5 SWAP2 DUP2 DUP2 DUP2 DUP6 DUP9 DUP9 CALL SWAP4 POP POP POP POP ISZERO DUP1 ISZERO PUSH2 0xA61 JUMPI RETURNDATASIZE PUSH1 0x0 DUP1 RETURNDATACOPY RETURNDATASIZE PUSH1 0x0 REVERT JUMPDEST POP JUMPDEST PUSH1 0x1 DUP1 SLOAD SWAP1 PUSH1 0x0 PUSH2 0xA73 DUP4 PUSH2 0xD89 JUMP JUMPDEST SWAP1 SWAP2 SSTORE POP POP PUSH1 0x1 SLOAD PUSH1 0x40 DUP1 MLOAD CALLVALUE DUP2 MSTORE PUSH1 0x20 DUP2 ADD DUP5 SWAP1 MSTORE DUP5 ISZERO ISZERO DUP2 DUP4 ADD MSTORE DUP7 ISZERO ISZERO PUSH1 0x60 DUP3 ADD MSTORE SWAP1 MLOAD DUP6 ISZERO ISZERO SWAP3 SWAP2 CALLER SWAP2 PUSH32 0x6C26B3162D7D565BF212F05FED6CAF02B019F4B186FEEFDEE65FEFE4DD07B6CE SWAP2 DUP2 SWAP1 SUB PUSH1 0x80 ADD SWAP1 LOG4 POP POP POP POP POP POP POP JUMP JUMPDEST PUSH1 0x0 DUP1 SLOAD PUSH1 0x1 PUSH1 0x1 PUSH1 0xA0 SHL SUB DUP4 DUP2 AND PUSH1 0x1 PUSH1 0x1 PUSH1 0xA0 SHL SUB NOT DUP4 AND DUP2 OR DUP5 SSTORE PUSH1 0x40 MLOAD SWAP2 SWAP1 SWAP3 AND SWAP3 DUP4 SWAP2 PUSH32 0x8BE0079C531659141344CD1FD0A4F28419497F9722A3DAAFE3B4186F6B6457E0 SWAP2 SWAP1 LOG3 POP POP JUMP JUMPDEST PUSH1 0x0 DUP1 JUMPDEST PUSH1 0x8 SLOAD DUP2 LT ISZERO PUSH2 0xB71 JUMPI PUSH1 0x8 DUP2 DUP2 SLOAD DUP2 LT PUSH2 0xB45 JUMPI PUSH2 0xB45 PUSH2 0xD5F JUMP JUMPDEST SWAP1 PUSH1 0x0 MSTORE PUSH1 0x20 PUSH1 0x0 KECCAK256 ADD SLOAD DUP4 SUB PUSH2 0xB5F JUMPI POP PUSH1 0x1 SWAP3 SWAP2 POP POP JUMP JUMPDEST DUP1 PUSH2 0xB69 DUP2 PUSH2 0xD89 JUMP JUMPDEST SWAP2 POP POP PUSH2 0xB28 JUMP JUMPDEST POP PUSH1 0x0 SWAP3 SWAP2 POP POP JUMP JUMPDEST PUSH1 0x0 DUP1 PUSH8 0xDE0B6B3A7640000 PUSH2 0xB90 DUP5 DUP7 PUSH2 0xD05 JUMP JUMPDEST PUSH2 0xB9A SWAP2 SWAP1 PUSH2 0xD32 JUMP JUMPDEST SWAP2 POP POP JUMPDEST SWAP3 SWAP2 POP POP JUMP JUMPDEST PUSH1 0x0 PUSH1 0x20 DUP3 DUP5 SUB SLT ISZERO PUSH2 0xBB6 JUMPI PUSH1 0x0 DUP1 REVERT JUMPDEST POP CALLDATALOAD SWAP2 SWAP1 POP JUMP JUMPDEST PUSH4 0x4E487B71 PUSH1 0xE0 SHL PUSH1 0x0 MSTORE PUSH1 0x41 PUSH1 0x4 MSTORE PUSH1 0x24 PUSH1 0x0 REVERT JUMPDEST PUSH1 0x0 DUP1 PUSH1 0x40 DUP4 DUP6 SUB SLT ISZERO PUSH2 0xBE6 JUMPI PUSH1 0x0 DUP1 REVERT JUMPDEST DUP3 CALLDATALOAD SWAP2 POP PUSH1 0x20 DUP1 DUP5 ADD CALLDATALOAD PUSH8 0xFFFFFFFFFFFFFFFF DUP1 DUP3 GT ISZERO PUSH2 0xC06 JUMPI PUSH1 0x0 DUP1 REVERT JUMPDEST DUP2 DUP7 ADD SWAP2 POP DUP7 PUSH1 0x1F DUP4 ADD SLT PUSH2 0xC1A JUMPI PUSH1 0x0 DUP1 REVERT JUMPDEST DUP2 CALLDATALOAD DUP2 DUP2 GT ISZERO PUSH2 0xC2C JUMPI PUSH2 0xC2C PUSH2 0xBBD JUMP JUMPDEST DUP1 PUSH1 0x5 SHL PUSH1 0x40 MLOAD PUSH1 0x1F NOT PUSH1 0x3F DUP4 ADD AND DUP2 ADD DUP2 DUP2 LT DUP6 DUP3 GT OR ISZERO PUSH2 0xC51 JUMPI PUSH2 0xC51 PUSH2 0xBBD JUMP JUMPDEST PUSH1 0x40 MSTORE SWAP2 DUP3 MSTORE DUP5 DUP3 ADD SWAP3 POP DUP4 DUP2 ADD DUP6 ADD SWAP2 DUP10 DUP4 GT ISZERO PUSH2 0xC6F JUMPI PUSH1 0x0 DUP1 REVERT JUMPDEST SWAP4 DUP6 ADD SWAP4 JUMPDEST DUP3 DUP6 LT ISZERO PUSH2 0xC8D JUMPI DUP5 CALLDATALOAD DUP5 MSTORE SWAP4 DUP6 ADD SWAP4 SWAP3 DUP6 ADD SWAP3 PUSH2 0xC74 JUMP JUMPDEST DUP1 SWAP7 POP POP POP POP POP POP POP SWAP3 POP SWAP3 SWAP1 POP JUMP JUMPDEST PUSH1 0x0 PUSH1 0x20 DUP3 DUP5 SUB SLT ISZERO PUSH2 0xCAF JUMPI PUSH1 0x0 DUP1 REVERT JUMPDEST DUP2 CALLDATALOAD DUP1 ISZERO ISZERO DUP2 EQ PUSH2 0xCBF JUMPI PUSH1 0x0 DUP1 REVERT JUMPDEST SWAP4 SWAP3 POP POP POP JUMP JUMPDEST PUSH1 0x0 PUSH1 0x20 DUP3 DUP5 SUB SLT ISZERO PUSH2 0xCD8 JUMPI PUSH1 0x0 DUP1 REVERT JUMPDEST DUP2 CALLDATALOAD PUSH1 0x1 PUSH1 0x1 PUSH1 0xA0 SHL SUB DUP2 AND DUP2 EQ PUSH2 0xCBF JUMPI PUSH1 0x0 DUP1 REVERT JUMPDEST PUSH4 0x4E487B71 PUSH1 0xE0 SHL PUSH1 0x0 MSTORE PUSH1 0x11 PUSH1 0x4 MSTORE PUSH1 0x24 PUSH1 0x0 REVERT JUMPDEST DUP1 DUP3 MUL DUP2 ISZERO DUP3 DUP3 DIV DUP5 EQ OR PUSH2 0xB9E JUMPI PUSH2 0xB9E PUSH2 0xCEF JUMP JUMPDEST PUSH4 0x4E487B71 PUSH1 0xE0 SHL PUSH1 0x0 MSTORE PUSH1 0x12 PUSH1 0x4 MSTORE PUSH1 0x24 PUSH1 0x0 REVERT JUMPDEST PUSH1 0x0 DUP3 PUSH2 0xD41 JUMPI PUSH2 0xD41 PUSH2 0xD1C JUMP JUMPDEST POP DIV SWAP1 JUMP JUMPDEST PUSH1 0x0 PUSH1 0x20 DUP3 DUP5 SUB SLT ISZERO PUSH2 0xD58 JUMPI PUSH1 0x0 DUP1 REVERT JUMPDEST POP MLOAD SWAP2 SWAP1 POP JUMP JUMPDEST PUSH4 0x4E487B71 PUSH1 0xE0 SHL PUSH1 0x0 MSTORE PUSH1 0x32 PUSH1 0x4 MSTORE PUSH1 0x24 PUSH1 0x0 REVERT JUMPDEST PUSH1 0x0 DUP3 PUSH2 0xD84 JUMPI PUSH2 0xD84 PUSH2 0xD1C JUMP JUMPDEST POP MOD SWAP1 JUMP JUMPDEST PUSH1 0x0 PUSH1 0x1 DUP3 ADD PUSH2 0xD9B JUMPI PUSH2 0xD9B PUSH2 0xCEF JUMP JUMPDEST POP PUSH1 0x1 ADD SWAP1 JUMP INVALID LOG2 PUSH5 0x6970667358 0x22 SLT KECCAK256 CALLDATACOPY 0xBA 0xB1 MUL PREVRANDAO PUSH4 0x731BC696 DUP6 PUSH7 0x98BBDC44670881 CALLER ADD 0xAA 0xCA 0xB9 0xE7 0xA8 PUSH8 0x752B0C420264736F PUSH13 0x63430008120033000000000000 "},"methodIdentifiers":{"allowedBetAmounts(uint256)":"c9e2774c","gameStatus(uint256)":"34239c9c","getBalance()":"12065fe0","getBonus()":"8bdff161","getOwner()":"893d20e8","getRtp()":"b62aaa21","getTotalHead()":"c5f22083","getTotalTail()":"0b023a23","owner()":"8da5cb5b","play(bool)":"c23c87d5","randomResult()":"42619f66","rawFulfillRandomWords(uint256,uint256[])":"1fe543e3","renounceOwnership()":"715018a6","setBonus(uint256)":"0b98f975","setRtp(uint256)":"f303773e","topUpBalance()":"7efff887","transferOwnership(address)":"f2fde38b","withdrawFunds()":"24600fc3"}}}}}