{
  "_format": "hh-sol-artifact-1",
  "contractName": "HeadOrTailGame",
  "sourceName": "contracts/HeadOrTailGame.sol",
  "abi": [
    {
      "inputs": [
        {
          "internalType": "uint64",
          "name": "subscriptionId",
          "type": "uint64"
        },
        {
          "internalType": "bytes32",
          "name": "gasLane",
          "type": "bytes32"
        },
        {
          "internalType": "uint32",
          "name": "callbackGasLimit",
          "type": "uint32"
        },
        {
          "internalType": "address",
          "name": "vrfCoordinatorV2",
          "type": "address"
        }
      ],
      "stateMutability": "nonpayable",
      "type": "constructor"
    },
    {
      "inputs": [
        {
          "internalType": "address",
          "name": "have",
          "type": "address"
        },
        {
          "internalType": "address",
          "name": "want",
          "type": "address"
        }
      ],
      "name": "OnlyCoordinatorCanFulfill",
      "type": "error"
    },
    {
      "anonymous": false,
      "inputs": [
        {
          "indexed": true,
          "internalType": "address",
          "name": "player",
          "type": "address"
        },
        {
          "indexed": true,
          "internalType": "uint256",
          "name": "requestId",
          "type": "uint256"
        },
        {
          "indexed": false,
          "internalType": "uint256",
          "name": "gameId",
          "type": "uint256"
        },
        {
          "indexed": false,
          "internalType": "bool",
          "name": "isWinner",
          "type": "bool"
        },
        {
          "indexed": false,
          "internalType": "uint256",
          "name": "betAmount",
          "type": "uint256"
        },
        {
          "indexed": false,
          "internalType": "uint256",
          "name": "amountWon",
          "type": "uint256"
        },
        {
          "indexed": false,
          "internalType": "bool",
          "name": "bonus",
          "type": "bool"
        },
        {
          "indexed": false,
          "internalType": "bool",
          "name": "isHead",
          "type": "bool"
        }
      ],
      "name": "GameResult",
      "type": "event"
    },
    {
      "anonymous": false,
      "inputs": [
        {
          "indexed": true,
          "internalType": "address",
          "name": "previousOwner",
          "type": "address"
        },
        {
          "indexed": true,
          "internalType": "address",
          "name": "newOwner",
          "type": "address"
        }
      ],
      "name": "OwnershipTransferred",
      "type": "event"
    },
    {
      "anonymous": false,
      "inputs": [
        {
          "indexed": true,
          "internalType": "uint256",
          "name": "requestId",
          "type": "uint256"
        }
      ],
      "name": "RequestedRandomNumber",
      "type": "event"
    },
    {
      "inputs": [
        {
          "internalType": "uint256",
          "name": "",
          "type": "uint256"
        }
      ],
      "name": "allowedBetAmounts",
      "outputs": [
        {
          "internalType": "uint256",
          "name": "",
          "type": "uint256"
        }
      ],
      "stateMutability": "view",
      "type": "function"
    },
    {
      "inputs": [
        {
          "internalType": "uint256",
          "name": "",
          "type": "uint256"
        }
      ],
      "name": "gameStatus",
      "outputs": [
        {
          "internalType": "uint256",
          "name": "fees",
          "type": "uint256"
        },
        {
          "internalType": "uint256",
          "name": "randomWord",
          "type": "uint256"
        },
        {
          "internalType": "address",
          "name": "player",
          "type": "address"
        },
        {
          "internalType": "bool",
          "name": "isWinner",
          "type": "bool"
        },
        {
          "internalType": "bool",
          "name": "fulfilled",
          "type": "bool"
        },
        {
          "internalType": "bool",
          "name": "isHead",
          "type": "bool"
        },
        {
          "internalType": "uint256",
          "name": "betAmount",
          "type": "uint256"
        }
      ],
      "stateMutability": "view",
      "type": "function"
    },
    {
      "inputs": [],
      "name": "getBalance",
      "outputs": [
        {
          "internalType": "uint256",
          "name": "",
          "type": "uint256"
        }
      ],
      "stateMutability": "view",
      "type": "function"
    },
    {
      "inputs": [],
      "name": "getBonus",
      "outputs": [
        {
          "internalType": "uint256",
          "name": "",
          "type": "uint256"
        }
      ],
      "stateMutability": "view",
      "type": "function"
    },
    {
      "inputs": [],
      "name": "getOwner",
      "outputs": [
        {
          "internalType": "address",
          "name": "",
          "type": "address"
        }
      ],
      "stateMutability": "view",
      "type": "function"
    },
    {
      "inputs": [],
      "name": "getRtp",
      "outputs": [
        {
          "internalType": "uint256",
          "name": "",
          "type": "uint256"
        }
      ],
      "stateMutability": "view",
      "type": "function"
    },
    {
      "inputs": [],
      "name": "getTotalHead",
      "outputs": [
        {
          "internalType": "uint256",
          "name": "",
          "type": "uint256"
        }
      ],
      "stateMutability": "view",
      "type": "function"
    },
    {
      "inputs": [],
      "name": "getTotalTail",
      "outputs": [
        {
          "internalType": "uint256",
          "name": "",
          "type": "uint256"
        }
      ],
      "stateMutability": "view",
      "type": "function"
    },
    {
      "inputs": [],
      "name": "owner",
      "outputs": [
        {
          "internalType": "address",
          "name": "",
          "type": "address"
        }
      ],
      "stateMutability": "view",
      "type": "function"
    },
    {
      "inputs": [
        {
          "internalType": "bool",
          "name": "choice",
          "type": "bool"
        }
      ],
      "name": "play",
      "outputs": [
        {
          "internalType": "uint256",
          "name": "",
          "type": "uint256"
        }
      ],
      "stateMutability": "payable",
      "type": "function"
    },
    {
      "inputs": [],
      "name": "randomResult",
      "outputs": [
        {
          "internalType": "uint256",
          "name": "",
          "type": "uint256"
        }
      ],
      "stateMutability": "view",
      "type": "function"
    },
    {
      "inputs": [
        {
          "internalType": "uint256",
          "name": "requestId",
          "type": "uint256"
        },
        {
          "internalType": "uint256[]",
          "name": "randomWords",
          "type": "uint256[]"
        }
      ],
      "name": "rawFulfillRandomWords",
      "outputs": [],
      "stateMutability": "nonpayable",
      "type": "function"
    },
    {
      "inputs": [],
      "name": "renounceOwnership",
      "outputs": [],
      "stateMutability": "nonpayable",
      "type": "function"
    },
    {
      "inputs": [
        {
          "internalType": "uint256",
          "name": "_bonus",
          "type": "uint256"
        }
      ],
      "name": "setBonus",
      "outputs": [],
      "stateMutability": "nonpayable",
      "type": "function"
    },
    {
      "inputs": [
        {
          "internalType": "uint256",
          "name": "_rtp",
          "type": "uint256"
        }
      ],
      "name": "setRtp",
      "outputs": [],
      "stateMutability": "nonpayable",
      "type": "function"
    },
    {
      "inputs": [],
      "name": "topUpBalance",
      "outputs": [],
      "stateMutability": "payable",
      "type": "function"
    },
    {
      "inputs": [
        {
          "internalType": "address",
          "name": "newOwner",
          "type": "address"
        }
      ],
      "name": "transferOwnership",
      "outputs": [],
      "stateMutability": "nonpayable",
      "type": "function"
    },
    {
      "inputs": [],
      "name": "withdrawFunds",
      "outputs": [],
      "stateMutability": "nonpayable",
      "type": "function"
    }
  ],
  "bytecode": "0x6101206040523480156200001257600080fd5b506040516200110d3803806200110d8339810160408190526200003591620001ad565b6001600160a01b0381166080526200004d33620000eb565b601160025560166003556000600155600480556040805160a081018252662386f26fc10000815266470de4df8200006020820152666a94d74f43000091810191909152668e1bc9bf040000606082015266b1a2bc2ec500006080820152620000ba9060089060056200013b565b506001600160a01b031660a05260e0919091526001600160401b0390911660c05263ffffffff166101005262000227565b600080546001600160a01b038381166001600160a01b0319831681178455604051919092169283917f8be0079c531659141344cd1fd0a4f28419497f9722a3daafe3b4186f6b6457e09190a35050565b82805482825590600052602060002090810192821562000184579160200282015b8281111562000184578251829066ffffffffffffff169055916020019190600101906200015c565b506200019292915062000196565b5090565b5b8082111562000192576000815560010162000197565b60008060008060808587031215620001c457600080fd5b84516001600160401b0381168114620001dc57600080fd5b60208601516040870151919550935063ffffffff81168114620001fe57600080fd5b60608601519092506001600160a01b03811681146200021c57600080fd5b939692955090935050565b60805160a05160c05160e05161010051610e9a62000273600039600061066601526000610604015260006106330152600061069701526000818161039c01526103de0152610e9a6000f3fe6080604052600436106101095760003560e01c8063893d20e811610095578063c23c87d511610064578063c23c87d5146102fc578063c5f220831461030f578063c9e2774c14610324578063f2fde38b14610344578063f303773e1461036457600080fd5b8063893d20e8146102825780638bdff161146102b45780638da5cb5b146102c9578063b62aaa21146102e757600080fd5b806324600fc3116100dc57806324600fc31461018757806334239c9c1461019c57806342619f661461024f578063715018a6146102655780637efff8871461027a57600080fd5b80630b023a231461010e5780630b98f9751461013257806312065fe0146101545780631fe543e314610167575b600080fd5b34801561011a57600080fd5b506006545b6040519081526020015b60405180910390f35b34801561013e57600080fd5b5061015261014d366004610c66565b610384565b005b34801561016057600080fd5b504761011f565b34801561017357600080fd5b50610152610182366004610c95565b610391565b34801561019357600080fd5b5061015261041e565b3480156101a857600080fd5b5061020a6101b7366004610c66565b6009602052600090815260409020805460018201546002830154600390930154919290916001600160a01b0382169160ff600160a01b8204811692600160a81b8304821692600160b01b90049091169087565b6040805197885260208801969096526001600160a01b039094169486019490945290151560608501521515608084015290151560a083015260c082015260e001610129565b34801561025b57600080fd5b5061011f60075481565b34801561027157600080fd5b506101526104b3565b6101526104c7565b34801561028e57600080fd5b506000546001600160a01b03165b6040516001600160a01b039091168152602001610129565b3480156102c057600080fd5b5060035461011f565b3480156102d557600080fd5b506000546001600160a01b031661029c565b3480156102f357600080fd5b5060025461011f565b61011f61030a366004610d5f565b610517565b34801561031b57600080fd5b5060055461011f565b34801561033057600080fd5b5061011f61033f366004610c66565b610802565b34801561035057600080fd5b5061015261035f366004610d88565b610823565b34801561037057600080fd5b5061015261037f366004610c66565b610899565b61038c6108a6565b600355565b336001600160a01b037f000000000000000000000000000000000000000000000000000000000000000016146104105760405163073e64fd60e21b81523360048201526001600160a01b037f00000000000000000000000000000000000000000000000000000000000000001660248201526044015b60405180910390fd5b61041a8282610900565b5050565b6104266108a6565b600047116104765760405162461bcd60e51b815260206004820152601a60248201527f436f6e74726163742062616c616e636520697320656d7074792e0000000000006044820152606401610407565b600080546040516001600160a01b03909116914780156108fc02929091818181858888f193505050501580156104b0573d6000803e3d6000fd5b50565b6104bb6108a6565b6104c56000610b96565b565b6104cf6108a6565b600034116104c55760405162461bcd60e51b8152602060048201526015602482015274125b9d985b1a59081d1bdc0b5d5c08185b5bdd5b9d605a1b6044820152606401610407565b600061052234610be6565b6105835760405162461bcd60e51b815260206004820152602c60248201527f506c656173652073656e6420636f727265637420616d6f756e7420746f20706c60448201526b30bc903a34329033b0b6b29760a11b6064820152608401610407565b476105af34600a600354670de0b6b3a76400006105a09190610dc7565b6105aa9190610df4565b610c3c565b106105f55760405162461bcd60e51b81526020600482015260166024820152752bb2903430bb329033b7b732903130b735b93ab83a1760511b6044820152606401610407565b6040516305d3b1d360e41b81527f0000000000000000000000000000000000000000000000000000000000000000600482015267ffffffffffffffff7f00000000000000000000000000000000000000000000000000000000000000001660248201526003604482015263ffffffff7f0000000000000000000000000000000000000000000000000000000000000000166064820152600160848201526000907f00000000000000000000000000000000000000000000000000000000000000006001600160a01b031690635d3b1d309060a4016020604051808303816000875af11580156106e8573d6000803e3d6000fd5b505050506040513d601f19601f8201168201806040525081019061070c9190610e08565b6040805160e081018252600080825260208083018281523384860190815260608501848152608086018581528b151560a088019081523460c089019081528a88526009909652888720975188559351600188015591516002870180549251935194511515600160b01b0260ff60b01b19951515600160a81b029590951661ffff60a81b19941515600160a01b026001600160a81b03199094166001600160a01b03939093169290921792909217929092169190911791909117905551600390920191909155905191925082917f28a75f9a78cd502748cecc04795531fd051165f83e4be1270400ac7130873e2e9190a292915050565b6008818154811061081257600080fd5b600091825260209091200154905081565b61082b6108a6565b6001600160a01b0381166108905760405162461bcd60e51b815260206004820152602660248201527f4f776e61626c653a206e6577206f776e657220697320746865207a65726f206160448201526564647265737360d01b6064820152608401610407565b6104b081610b96565b6108a16108a6565b600255565b6000546001600160a01b031633146104c55760405162461bcd60e51b815260206004820181905260248201527f4f776e61626c653a2063616c6c6572206973206e6f7420746865206f776e65726044820152606401610407565b6000828152600960205260408120600201805460ff60a81b1916600160a81b179055815182919061093357610933610e21565b60200260200101516009600084815260200190815260200160002060010181905550600060648260008151811061096c5761096c610e21565b602002602001015161097e9190610e37565b9050600061098d600283610e37565b60008581526009602052604090206002015460045491159250600160b01b900460ff1615158214908310826109d557600680549060006109cc83610e4b565b919050556109ea565b600580549060006109e583610e4b565b919050555b5060008215610af257600087815260096020526040902060030154610a2e90600a84610a1857600254610a1c565b6003545b6105a090670de0b6b3a7640000610dc7565b905047811115610a3b5750475b6000878152600960205260408082206002018054600160a01b60ff60a01b1982161790915590516001600160a01b039091169083908381818185875af1925050503d8060008114610aa8576040519150601f19603f3d011682016040523d82523d6000602084013e610aad565b606091505b5050905080610af05760405162461bcd60e51b815260206004820152600f60248201526e151c985b9cd9995c8819985a5b1959608a1b6044820152606401610407565b505b60018054906000610b0283610e4b565b909155505060008781526009602090815260409182902060028101546001546003909201548451928352871515938301939093529281019190915260608101839052831515608082015285151560a082015288916001600160a01b0316907f3fceb718577531f659be1037b1dd265e5e32134c2be981e0bc1579f2250b08509060c00160405180910390a350505050505050565b600080546001600160a01b038381166001600160a01b0319831681178455604051919092169283917f8be0079c531659141344cd1fd0a4f28419497f9722a3daafe3b4186f6b6457e09190a35050565b6000805b600854811015610c335760088181548110610c0757610c07610e21565b90600052602060002001548303610c215750600192915050565b80610c2b81610e4b565b915050610bea565b50600092915050565b600080670de0b6b3a7640000610c528486610dc7565b610c5c9190610df4565b9150505b92915050565b600060208284031215610c7857600080fd5b5035919050565b634e487b7160e01b600052604160045260246000fd5b60008060408385031215610ca857600080fd5b8235915060208084013567ffffffffffffffff80821115610cc857600080fd5b818601915086601f830112610cdc57600080fd5b813581811115610cee57610cee610c7f565b8060051b604051601f19603f83011681018181108582111715610d1357610d13610c7f565b604052918252848201925083810185019189831115610d3157600080fd5b938501935b82851015610d4f57843584529385019392850192610d36565b8096505050505050509250929050565b600060208284031215610d7157600080fd5b81358015158114610d8157600080fd5b9392505050565b600060208284031215610d9a57600080fd5b81356001600160a01b0381168114610d8157600080fd5b634e487b7160e01b600052601160045260246000fd5b8082028115828204841417610c6057610c60610db1565b634e487b7160e01b600052601260045260246000fd5b600082610e0357610e03610dde565b500490565b600060208284031215610e1a57600080fd5b5051919050565b634e487b7160e01b600052603260045260246000fd5b600082610e4657610e46610dde565b500690565b600060018201610e5d57610e5d610db1565b506001019056fea2646970667358221220308ba441da31a887ca0c29fb2c4042418d6429fc62b8a63e0794f5723091c9ce64736f6c63430008120033",
  "linkReferences": {},
  "deployedLinkReferences": {}
}